{
  "contractName": "NFT",
  "abi": [
    {
      "inputs": [],
      "stateMutability": "nonpayable",
      "type": "constructor"
    },
    {
      "anonymous": false,
      "inputs": [
        {
          "indexed": false,
          "internalType": "uint256",
          "name": "NFT_ID",
          "type": "uint256"
        },
        {
          "indexed": false,
          "internalType": "string",
          "name": "imgUrl",
          "type": "string"
        },
        {
          "indexed": false,
          "internalType": "uint256",
          "name": "nftprice",
          "type": "uint256"
        },
        {
          "indexed": false,
          "internalType": "string",
          "name": "nft_title",
          "type": "string"
        },
        {
          "indexed": false,
          "internalType": "string",
          "name": "nftDescription",
          "type": "string"
        },
        {
          "indexed": false,
          "internalType": "string",
          "name": "nftcreator",
          "type": "string"
        }
      ],
      "name": "AddNFT",
      "type": "event"
    },
    {
      "anonymous": false,
      "inputs": [
        {
          "indexed": true,
          "internalType": "address",
          "name": "owner",
          "type": "address"
        },
        {
          "indexed": true,
          "internalType": "address",
          "name": "approved",
          "type": "address"
        },
        {
          "indexed": true,
          "internalType": "uint256",
          "name": "tokenId",
          "type": "uint256"
        }
      ],
      "name": "Approval",
      "type": "event"
    },
    {
      "anonymous": false,
      "inputs": [
        {
          "indexed": true,
          "internalType": "address",
          "name": "owner",
          "type": "address"
        },
        {
          "indexed": true,
          "internalType": "address",
          "name": "operator",
          "type": "address"
        },
        {
          "indexed": false,
          "internalType": "bool",
          "name": "approved",
          "type": "bool"
        }
      ],
      "name": "ApprovalForAll",
      "type": "event"
    },
    {
      "anonymous": false,
      "inputs": [
        {
          "indexed": true,
          "internalType": "address",
          "name": "previousOwner",
          "type": "address"
        },
        {
          "indexed": true,
          "internalType": "address",
          "name": "newOwner",
          "type": "address"
        }
      ],
      "name": "OwnershipTransferred",
      "type": "event"
    },
    {
      "anonymous": false,
      "inputs": [
        {
          "indexed": true,
          "internalType": "address",
          "name": "from",
          "type": "address"
        },
        {
          "indexed": true,
          "internalType": "address",
          "name": "to",
          "type": "address"
        },
        {
          "indexed": true,
          "internalType": "uint256",
          "name": "tokenId",
          "type": "uint256"
        }
      ],
      "name": "Transfer",
      "type": "event"
    },
    {
      "inputs": [
        {
          "internalType": "address",
          "name": "to",
          "type": "address"
        },
        {
          "internalType": "uint256",
          "name": "tokenId",
          "type": "uint256"
        }
      ],
      "name": "approve",
      "outputs": [],
      "stateMutability": "nonpayable",
      "type": "function"
    },
    {
      "inputs": [
        {
          "internalType": "address",
          "name": "owner",
          "type": "address"
        }
      ],
      "name": "balanceOf",
      "outputs": [
        {
          "internalType": "uint256",
          "name": "",
          "type": "uint256"
        }
      ],
      "stateMutability": "view",
      "type": "function",
      "constant": true
    },
    {
      "inputs": [
        {
          "internalType": "uint256",
          "name": "",
          "type": "uint256"
        }
      ],
      "name": "data",
      "outputs": [
        {
          "internalType": "uint256",
          "name": "id",
          "type": "uint256"
        },
        {
          "internalType": "address",
          "name": "nftowner",
          "type": "address"
        },
        {
          "internalType": "string",
          "name": "imgUrl",
          "type": "string"
        },
        {
          "internalType": "uint256",
          "name": "nftprice",
          "type": "uint256"
        },
        {
          "internalType": "string",
          "name": "nft_title",
          "type": "string"
        },
        {
          "internalType": "string",
          "name": "nftDescription",
          "type": "string"
        },
        {
          "internalType": "string",
          "name": "nftcreator",
          "type": "string"
        }
      ],
      "stateMutability": "view",
      "type": "function",
      "constant": true
    },
    {
      "inputs": [
        {
          "internalType": "uint256",
          "name": "tokenId",
          "type": "uint256"
        }
      ],
      "name": "getApproved",
      "outputs": [
        {
          "internalType": "address",
          "name": "",
          "type": "address"
        }
      ],
      "stateMutability": "view",
      "type": "function",
      "constant": true
    },
    {
      "inputs": [
        {
          "internalType": "address",
          "name": "owner",
          "type": "address"
        },
        {
          "internalType": "address",
          "name": "operator",
          "type": "address"
        }
      ],
      "name": "isApprovedForAll",
      "outputs": [
        {
          "internalType": "bool",
          "name": "",
          "type": "bool"
        }
      ],
      "stateMutability": "view",
      "type": "function",
      "constant": true
    },
    {
      "inputs": [],
      "name": "name",
      "outputs": [
        {
          "internalType": "string",
          "name": "",
          "type": "string"
        }
      ],
      "stateMutability": "view",
      "type": "function",
      "constant": true
    },
    {
      "inputs": [],
      "name": "owner",
      "outputs": [
        {
          "internalType": "address",
          "name": "",
          "type": "address"
        }
      ],
      "stateMutability": "view",
      "type": "function",
      "constant": true
    },
    {
      "inputs": [
        {
          "internalType": "uint256",
          "name": "tokenId",
          "type": "uint256"
        }
      ],
      "name": "ownerOf",
      "outputs": [
        {
          "internalType": "address",
          "name": "",
          "type": "address"
        }
      ],
      "stateMutability": "view",
      "type": "function",
      "constant": true
    },
    {
      "inputs": [],
      "name": "renounceOwnership",
      "outputs": [],
      "stateMutability": "nonpayable",
      "type": "function"
    },
    {
      "inputs": [
        {
          "internalType": "address",
          "name": "from",
          "type": "address"
        },
        {
          "internalType": "address",
          "name": "to",
          "type": "address"
        },
        {
          "internalType": "uint256",
          "name": "tokenId",
          "type": "uint256"
        }
      ],
      "name": "safeTransferFrom",
      "outputs": [],
      "stateMutability": "nonpayable",
      "type": "function"
    },
    {
      "inputs": [
        {
          "internalType": "address",
          "name": "from",
          "type": "address"
        },
        {
          "internalType": "address",
          "name": "to",
          "type": "address"
        },
        {
          "internalType": "uint256",
          "name": "tokenId",
          "type": "uint256"
        },
        {
          "internalType": "bytes",
          "name": "data",
          "type": "bytes"
        }
      ],
      "name": "safeTransferFrom",
      "outputs": [],
      "stateMutability": "nonpayable",
      "type": "function"
    },
    {
      "inputs": [
        {
          "internalType": "address",
          "name": "operator",
          "type": "address"
        },
        {
          "internalType": "bool",
          "name": "approved",
          "type": "bool"
        }
      ],
      "name": "setApprovalForAll",
      "outputs": [],
      "stateMutability": "nonpayable",
      "type": "function"
    },
    {
      "inputs": [],
      "name": "symbol",
      "outputs": [
        {
          "internalType": "string",
          "name": "",
          "type": "string"
        }
      ],
      "stateMutability": "view",
      "type": "function",
      "constant": true
    },
    {
      "inputs": [
        {
          "internalType": "uint256",
          "name": "index",
          "type": "uint256"
        }
      ],
      "name": "tokenByIndex",
      "outputs": [
        {
          "internalType": "uint256",
          "name": "",
          "type": "uint256"
        }
      ],
      "stateMutability": "view",
      "type": "function",
      "constant": true
    },
    {
      "inputs": [
        {
          "internalType": "address",
          "name": "owner",
          "type": "address"
        },
        {
          "internalType": "uint256",
          "name": "index",
          "type": "uint256"
        }
      ],
      "name": "tokenOfOwnerByIndex",
      "outputs": [
        {
          "internalType": "uint256",
          "name": "",
          "type": "uint256"
        }
      ],
      "stateMutability": "view",
      "type": "function",
      "constant": true
    },
    {
      "inputs": [
        {
          "internalType": "uint256",
          "name": "tokenId",
          "type": "uint256"
        }
      ],
      "name": "tokenURI",
      "outputs": [
        {
          "internalType": "string",
          "name": "",
          "type": "string"
        }
      ],
      "stateMutability": "view",
      "type": "function",
      "constant": true
    },
    {
      "inputs": [],
      "name": "totalSupply",
      "outputs": [
        {
          "internalType": "uint256",
          "name": "",
          "type": "uint256"
        }
      ],
      "stateMutability": "view",
      "type": "function",
      "constant": true
    },
    {
      "inputs": [
        {
          "internalType": "address",
          "name": "from",
          "type": "address"
        },
        {
          "internalType": "address",
          "name": "to",
          "type": "address"
        },
        {
          "internalType": "uint256",
          "name": "tokenId",
          "type": "uint256"
        }
      ],
      "name": "transferFrom",
      "outputs": [],
      "stateMutability": "nonpayable",
      "type": "function"
    },
    {
      "inputs": [
        {
          "internalType": "address",
          "name": "newOwner",
          "type": "address"
        }
      ],
      "name": "transferOwnership",
      "outputs": [],
      "stateMutability": "nonpayable",
      "type": "function"
    },
    {
      "inputs": [
        {
          "internalType": "address",
          "name": "to",
          "type": "address"
        },
        {
          "internalType": "uint256",
          "name": "tokenId",
          "type": "uint256"
        }
      ],
      "name": "safeMint",
      "outputs": [],
      "stateMutability": "nonpayable",
      "type": "function"
    },
    {
      "inputs": [
        {
          "internalType": "bytes4",
          "name": "interfaceId",
          "type": "bytes4"
        }
      ],
      "name": "supportsInterface",
      "outputs": [
        {
          "internalType": "bool",
          "name": "",
          "type": "bool"
        }
      ],
      "stateMutability": "view",
      "type": "function",
      "constant": true
    },
    {
      "inputs": [
        {
          "internalType": "address",
          "name": "_add",
          "type": "address"
        },
        {
          "internalType": "uint256",
          "name": "_price",
          "type": "uint256"
        },
        {
          "internalType": "string",
          "name": "_title",
          "type": "string"
        },
        {
          "internalType": "string",
          "name": "_imgUrl",
          "type": "string"
        },
        {
          "internalType": "string",
          "name": "_des",
          "type": "string"
        },
        {
          "internalType": "string",
          "name": "_creator",
          "type": "string"
        }
      ],
      "name": "Add_nft",
      "outputs": [],
      "stateMutability": "payable",
      "type": "function",
      "payable": true
    },
    {
      "inputs": [
        {
          "internalType": "uint256",
          "name": "_id",
          "type": "uint256"
        }
      ],
      "name": "NFT_DATA",
      "outputs": [
        {
          "components": [
            {
              "internalType": "uint256",
              "name": "id",
              "type": "uint256"
            },
            {
              "internalType": "address",
              "name": "nftowner",
              "type": "address"
            },
            {
              "internalType": "string",
              "name": "imgUrl",
              "type": "string"
            },
            {
              "internalType": "uint256",
              "name": "nftprice",
              "type": "uint256"
            },
            {
              "internalType": "string",
              "name": "nft_title",
              "type": "string"
            },
            {
              "internalType": "string",
              "name": "nftDescription",
              "type": "string"
            },
            {
              "internalType": "string",
              "name": "nftcreator",
              "type": "string"
            }
          ],
          "internalType": "struct NFT.Detail",
          "name": "",
          "type": "tuple"
        }
      ],
      "stateMutability": "view",
      "type": "function",
      "constant": true
    },
    {
      "inputs": [
        {
          "internalType": "uint256",
          "name": "_id",
          "type": "uint256"
        }
      ],
      "name": "IMG_URL",
      "outputs": [
        {
          "internalType": "string",
          "name": "",
          "type": "string"
        }
      ],
      "stateMutability": "view",
      "type": "function",
      "constant": true
    }
  ],
  "bytecode": "0x60806040526001600b553480156200001657600080fd5b506040518060400160405280600781526020017f4d79546f6b656e000000000000000000000000000000000000000000000000008152506040518060400160405280600381526020017f4d544b0000000000000000000000000000000000000000000000000000000000815250816000908162000094919062000417565b508060019081620000a6919062000417565b505050620000c9620000bd620000cf60201b60201c565b620000d760201b60201c565b620004fe565b600033905090565b6000600a60009054906101000a900473ffffffffffffffffffffffffffffffffffffffff16905081600a60006101000a81548173ffffffffffffffffffffffffffffffffffffffff021916908373ffffffffffffffffffffffffffffffffffffffff1602179055508173ffffffffffffffffffffffffffffffffffffffff168173ffffffffffffffffffffffffffffffffffffffff167f8be0079c531659141344cd1fd0a4f28419497f9722a3daafe3b4186f6b6457e060405160405180910390a35050565b600081519050919050565b7f4e487b7100000000000000000000000000000000000000000000000000000000600052604160045260246000fd5b7f4e487b7100000000000000000000000000000000000000000000000000000000600052602260045260246000fd5b600060028204905060018216806200021f57607f821691505b602082108103620002355762000234620001d7565b5b50919050565b60008190508160005260206000209050919050565b60006020601f8301049050919050565b600082821b905092915050565b6000600883026200029f7fffffffffffffffffffffffffffffffffffffffffffffffffffffffffffffffff8262000260565b620002ab868362000260565b95508019841693508086168417925050509392505050565b6000819050919050565b6000819050919050565b6000620002f8620002f2620002ec84620002c3565b620002cd565b620002c3565b9050919050565b6000819050919050565b6200031483620002d7565b6200032c6200032382620002ff565b8484546200026d565b825550505050565b600090565b6200034362000334565b6200035081848462000309565b505050565b5b8181101562000378576200036c60008262000339565b60018101905062000356565b5050565b601f821115620003c75762000391816200023b565b6200039c8462000250565b81016020851015620003ac578190505b620003c4620003bb8562000250565b83018262000355565b50505b505050565b600082821c905092915050565b6000620003ec60001984600802620003cc565b1980831691505092915050565b6000620004078383620003d9565b9150826002028217905092915050565b62000422826200019d565b67ffffffffffffffff8111156200043e576200043d620001a8565b5b6200044a825462000206565b620004578282856200037c565b600060209050601f8311600181146200048f57600084156200047a578287015190505b620004868582620003f9565b865550620004f6565b601f1984166200049f866200023b565b60005b82811015620004c957848901518255600182019150602085019450602081019050620004a2565b86831015620004e95784890151620004e5601f891682620003d9565b8355505b6001600288020188555050505b505050505050565b614358806200050e6000396000f3fe60806040526004361061014b5760003560e01c806370a08231116100b6578063b88d4fde1161006f578063b88d4fde146104a7578063c87b56dd146104d0578063d2d5f9341461050d578063e985e9c51461054a578063f0ba844014610587578063f2fde38b146105ca5761014b565b806370a08231146103ab578063715018a6146103e85780638da5cb5b146103ff57806395d89b411461042a578063a144819414610455578063a22cb4651461047e5761014b565b806323b872dd1161010857806323b872dd146102655780632f745c591461028e57806342842e0e146102cb5780634f6ccce7146102f4578063547165ac146103315780636352211e1461036e5761014b565b806301ffc9a71461015057806306fdde031461018d578063081812fc146101b8578063095ea7b3146101f557806318160ddd1461021e5780631c01a61f14610249575b600080fd5b34801561015c57600080fd5b5061017760048036038101906101729190612c4c565b6105f3565b6040516101849190612c94565b60405180910390f35b34801561019957600080fd5b506101a2610605565b6040516101af9190612d3f565b60405180910390f35b3480156101c457600080fd5b506101df60048036038101906101da9190612d97565b610697565b6040516101ec9190612e05565b60405180910390f35b34801561020157600080fd5b5061021c60048036038101906102179190612e4c565b6106dd565b005b34801561022a57600080fd5b506102336107f4565b6040516102409190612e9b565b60405180910390f35b610263600480360381019061025e9190612feb565b610801565b005b34801561027157600080fd5b5061028c600480360381019061028791906130e8565b610af0565b005b34801561029a57600080fd5b506102b560048036038101906102b09190612e4c565b610b50565b6040516102c29190612e9b565b60405180910390f35b3480156102d757600080fd5b506102f260048036038101906102ed91906130e8565b610bf5565b005b34801561030057600080fd5b5061031b60048036038101906103169190612d97565b610c15565b6040516103289190612e9b565b60405180910390f35b34801561033d57600080fd5b5061035860048036038101906103539190612d97565b610c86565b6040516103659190612d3f565b60405180910390f35b34801561037a57600080fd5b5061039560048036038101906103909190612d97565b610d2e565b6040516103a29190612e05565b60405180910390f35b3480156103b757600080fd5b506103d260048036038101906103cd919061313b565b610db4565b6040516103df9190612e9b565b60405180910390f35b3480156103f457600080fd5b506103fd610e6b565b005b34801561040b57600080fd5b50610414610e7f565b6040516104219190612e05565b60405180910390f35b34801561043657600080fd5b5061043f610ea9565b60405161044c9190612d3f565b60405180910390f35b34801561046157600080fd5b5061047c60048036038101906104779190612e4c565b610f3b565b005b34801561048a57600080fd5b506104a560048036038101906104a09190613194565b610f51565b005b3480156104b357600080fd5b506104ce60048036038101906104c99190613275565b610f67565b005b3480156104dc57600080fd5b506104f760048036038101906104f29190612d97565b610fc9565b6040516105049190612d3f565b60405180910390f35b34801561051957600080fd5b50610534600480360381019061052f9190612d97565b611031565b6040516105419190613411565b60405180910390f35b34801561055657600080fd5b50610571600480360381019061056c9190613433565b611310565b60405161057e9190612c94565b60405180910390f35b34801561059357600080fd5b506105ae60048036038101906105a99190612d97565b6113a4565b6040516105c19796959493929190613473565b60405180910390f35b3480156105d657600080fd5b506105f160048036038101906105ec919061313b565b611626565b005b60006105fe826116a9565b9050919050565b6060600080546106149061352d565b80601f01602080910402602001604051908101604052809291908181526020018280546106409061352d565b801561068d5780601f106106625761010080835404028352916020019161068d565b820191906000526020600020905b81548152906001019060200180831161067057829003601f168201915b5050505050905090565b60006106a282611723565b6004600083815260200190815260200160002060009054906101000a900473ffffffffffffffffffffffffffffffffffffffff169050919050565b60006106e882610d2e565b90508073ffffffffffffffffffffffffffffffffffffffff168373ffffffffffffffffffffffffffffffffffffffff1603610758576040517f08c379a000000000000000000000000000000000000000000000000000000000815260040161074f906135d0565b60405180910390fd5b8073ffffffffffffffffffffffffffffffffffffffff1661077761176e565b73ffffffffffffffffffffffffffffffffffffffff1614806107a657506107a5816107a061176e565b611310565b5b6107e5576040517f08c379a00000000000000000000000000000000000000000000000000000000081526004016107dc90613662565b60405180910390fd5b6107ef8383611776565b505050565b6000600880549050905090565b61080d86600b5461182f565b6040518060e00160405280600b5481526020018773ffffffffffffffffffffffffffffffffffffffff16815260200184815260200186815260200185815260200183815260200182815250600c6000600b5481526020019081526020016000206000820151816000015560208201518160010160006101000a81548173ffffffffffffffffffffffffffffffffffffffff021916908373ffffffffffffffffffffffffffffffffffffffff16021790555060408201518160020190816108d3919061382e565b506060820151816003015560808201518160040190816108f3919061382e565b5060a0820151816005019081610909919061382e565b5060c082015181600601908161091f919061382e565b50905050600d60008773ffffffffffffffffffffffffffffffffffffffff1673ffffffffffffffffffffffffffffffffffffffff1681526020019081526020016000206040518060e00160405280600b5481526020018873ffffffffffffffffffffffffffffffffffffffff1681526020018581526020018781526020018681526020018481526020018381525090806001815401808255809150506001900390600052602060002090600702016000909190919091506000820151816000015560208201518160010160006101000a81548173ffffffffffffffffffffffffffffffffffffffff021916908373ffffffffffffffffffffffffffffffffffffffff1602179055506040820151816002019081610a3c919061382e565b50606082015181600301556080820151816004019081610a5c919061382e565b5060a0820151816005019081610a72919061382e565b5060c0820151816006019081610a88919061382e565b5050506001600b6000828254610a9e919061392f565b925050819055507ffb3238df4a2b58b5670221202a81a47baf87e0fe882581f2b05e4a0198eb4fa0600b548487878686604051610ae096959493929190613963565b60405180910390a1505050505050565b610b01610afb61176e565b82611a4c565b610b40576040517f08c379a0000000000000000000000000000000000000000000000000000000008152600401610b3790613a52565b60405180910390fd5b610b4b838383611ae1565b505050565b6000610b5b83610db4565b8210610b9c576040517f08c379a0000000000000000000000000000000000000000000000000000000008152600401610b9390613ae4565b60405180910390fd5b600660008473ffffffffffffffffffffffffffffffffffffffff1673ffffffffffffffffffffffffffffffffffffffff168152602001908152602001600020600083815260200190815260200160002054905092915050565b610c1083838360405180602001604052806000815250610f67565b505050565b6000610c1f6107f4565b8210610c60576040517f08c379a0000000000000000000000000000000000000000000000000000000008152600401610c5790613b76565b60405180910390fd5b60088281548110610c7457610c73613b96565b5b90600052602060002001549050919050565b6060600c60008381526020019081526020016000206002018054610ca99061352d565b80601f0160208091040260200160405190810160405280929190818152602001828054610cd59061352d565b8015610d225780601f10610cf757610100808354040283529160200191610d22565b820191906000526020600020905b815481529060010190602001808311610d0557829003601f168201915b50505050509050919050565b600080610d3a83611dda565b9050600073ffffffffffffffffffffffffffffffffffffffff168173ffffffffffffffffffffffffffffffffffffffff1603610dab576040517f08c379a0000000000000000000000000000000000000000000000000000000008152600401610da290613c11565b60405180910390fd5b80915050919050565b60008073ffffffffffffffffffffffffffffffffffffffff168273ffffffffffffffffffffffffffffffffffffffff1603610e24576040517f08c379a0000000000000000000000000000000000000000000000000000000008152600401610e1b90613ca3565b60405180910390fd5b600360008373ffffffffffffffffffffffffffffffffffffffff1673ffffffffffffffffffffffffffffffffffffffff168152602001908152602001600020549050919050565b610e73611e17565b610e7d6000611e95565b565b6000600a60009054906101000a900473ffffffffffffffffffffffffffffffffffffffff16905090565b606060018054610eb89061352d565b80601f0160208091040260200160405190810160405280929190818152602001828054610ee49061352d565b8015610f315780601f10610f0657610100808354040283529160200191610f31565b820191906000526020600020905b815481529060010190602001808311610f1457829003601f168201915b5050505050905090565b610f43611e17565b610f4d8282611f5b565b5050565b610f63610f5c61176e565b8383611f79565b5050565b610f78610f7261176e565b83611a4c565b610fb7576040517f08c379a0000000000000000000000000000000000000000000000000000000008152600401610fae90613a52565b60405180910390fd5b610fc3848484846120e5565b50505050565b6060610fd482611723565b6000610fde612141565b90506000815111610ffe5760405180602001604052806000815250611029565b8061100884612158565b604051602001611019929190613cff565b6040516020818303038152906040525b915050919050565b611039612b8d565b600c60008381526020019081526020016000206040518060e0016040529081600082015481526020016001820160009054906101000a900473ffffffffffffffffffffffffffffffffffffffff1673ffffffffffffffffffffffffffffffffffffffff1673ffffffffffffffffffffffffffffffffffffffff1681526020016002820180546110c79061352d565b80601f01602080910402602001604051908101604052809291908181526020018280546110f39061352d565b80156111405780601f1061111557610100808354040283529160200191611140565b820191906000526020600020905b81548152906001019060200180831161112357829003601f168201915b50505050508152602001600382015481526020016004820180546111639061352d565b80601f016020809104026020016040519081016040528092919081815260200182805461118f9061352d565b80156111dc5780601f106111b1576101008083540402835291602001916111dc565b820191906000526020600020905b8154815290600101906020018083116111bf57829003601f168201915b505050505081526020016005820180546111f59061352d565b80601f01602080910402602001604051908101604052809291908181526020018280546112219061352d565b801561126e5780601f106112435761010080835404028352916020019161126e565b820191906000526020600020905b81548152906001019060200180831161125157829003601f168201915b505050505081526020016006820180546112879061352d565b80601f01602080910402602001604051908101604052809291908181526020018280546112b39061352d565b80156113005780601f106112d557610100808354040283529160200191611300565b820191906000526020600020905b8154815290600101906020018083116112e357829003601f168201915b5050505050815250509050919050565b6000600560008473ffffffffffffffffffffffffffffffffffffffff1673ffffffffffffffffffffffffffffffffffffffff16815260200190815260200160002060008373ffffffffffffffffffffffffffffffffffffffff1673ffffffffffffffffffffffffffffffffffffffff16815260200190815260200160002060009054906101000a900460ff16905092915050565b600c6020528060005260406000206000915090508060000154908060010160009054906101000a900473ffffffffffffffffffffffffffffffffffffffff16908060020180546113f39061352d565b80601f016020809104026020016040519081016040528092919081815260200182805461141f9061352d565b801561146c5780601f106114415761010080835404028352916020019161146c565b820191906000526020600020905b81548152906001019060200180831161144f57829003601f168201915b5050505050908060030154908060040180546114879061352d565b80601f01602080910402602001604051908101604052809291908181526020018280546114b39061352d565b80156115005780601f106114d557610100808354040283529160200191611500565b820191906000526020600020905b8154815290600101906020018083116114e357829003601f168201915b5050505050908060050180546115159061352d565b80601f01602080910402602001604051908101604052809291908181526020018280546115419061352d565b801561158e5780601f106115635761010080835404028352916020019161158e565b820191906000526020600020905b81548152906001019060200180831161157157829003601f168201915b5050505050908060060180546115a39061352d565b80601f01602080910402602001604051908101604052809291908181526020018280546115cf9061352d565b801561161c5780601f106115f15761010080835404028352916020019161161c565b820191906000526020600020905b8154815290600101906020018083116115ff57829003601f168201915b5050505050905087565b61162e611e17565b600073ffffffffffffffffffffffffffffffffffffffff168173ffffffffffffffffffffffffffffffffffffffff160361169d576040517f08c379a000000000000000000000000000000000000000000000000000000000815260040161169490613d95565b60405180910390fd5b6116a681611e95565b50565b60007f780e9d63000000000000000000000000000000000000000000000000000000007bffffffffffffffffffffffffffffffffffffffffffffffffffffffff1916827bffffffffffffffffffffffffffffffffffffffffffffffffffffffff1916148061171c575061171b82612226565b5b9050919050565b61172c81612308565b61176b576040517f08c379a000000000000000000000000000000000000000000000000000000000815260040161176290613c11565b60405180910390fd5b50565b600033905090565b816004600083815260200190815260200160002060006101000a81548173ffffffffffffffffffffffffffffffffffffffff021916908373ffffffffffffffffffffffffffffffffffffffff160217905550808273ffffffffffffffffffffffffffffffffffffffff166117e983610d2e565b73ffffffffffffffffffffffffffffffffffffffff167f8c5be1e5ebec7d5bd14f71427d1e84f3dd0314c0f7b2291e5b200ac8c7c3b92560405160405180910390a45050565b600073ffffffffffffffffffffffffffffffffffffffff168273ffffffffffffffffffffffffffffffffffffffff160361189e576040517f08c379a000000000000000000000000000000000000000000000000000000000815260040161189590613e01565b60405180910390fd5b6118a781612308565b156118e7576040517f08c379a00000000000000000000000000000000000000000000000000000000081526004016118de90613e6d565b60405180910390fd5b6118f5600083836001612349565b6118fe81612308565b1561193e576040517f08c379a000000000000000000000000000000000000000000000000000000000815260040161193590613e6d565b60405180910390fd5b6001600360008473ffffffffffffffffffffffffffffffffffffffff1673ffffffffffffffffffffffffffffffffffffffff16815260200190815260200160002060008282540192505081905550816002600083815260200190815260200160002060006101000a81548173ffffffffffffffffffffffffffffffffffffffff021916908373ffffffffffffffffffffffffffffffffffffffff160217905550808273ffffffffffffffffffffffffffffffffffffffff16600073ffffffffffffffffffffffffffffffffffffffff167fddf252ad1be2c89b69c2b068fc378daa952ba7f163c4a11628f55a4df523b3ef60405160405180910390a4611a4860008383600161235b565b5050565b600080611a5883610d2e565b90508073ffffffffffffffffffffffffffffffffffffffff168473ffffffffffffffffffffffffffffffffffffffff161480611a9a5750611a998185611310565b5b80611ad857508373ffffffffffffffffffffffffffffffffffffffff16611ac084610697565b73ffffffffffffffffffffffffffffffffffffffff16145b91505092915050565b8273ffffffffffffffffffffffffffffffffffffffff16611b0182610d2e565b73ffffffffffffffffffffffffffffffffffffffff1614611b57576040517f08c379a0000000000000000000000000000000000000000000000000000000008152600401611b4e90613eff565b60405180910390fd5b600073ffffffffffffffffffffffffffffffffffffffff168273ffffffffffffffffffffffffffffffffffffffff1603611bc6576040517f08c379a0000000000000000000000000000000000000000000000000000000008152600401611bbd90613f91565b60405180910390fd5b611bd38383836001612349565b8273ffffffffffffffffffffffffffffffffffffffff16611bf382610d2e565b73ffffffffffffffffffffffffffffffffffffffff1614611c49576040517f08c379a0000000000000000000000000000000000000000000000000000000008152600401611c4090613eff565b60405180910390fd5b6004600082815260200190815260200160002060006101000a81549073ffffffffffffffffffffffffffffffffffffffff02191690556001600360008573ffffffffffffffffffffffffffffffffffffffff1673ffffffffffffffffffffffffffffffffffffffff168152602001908152602001600020600082825403925050819055506001600360008473ffffffffffffffffffffffffffffffffffffffff1673ffffffffffffffffffffffffffffffffffffffff16815260200190815260200160002060008282540192505081905550816002600083815260200190815260200160002060006101000a81548173ffffffffffffffffffffffffffffffffffffffff021916908373ffffffffffffffffffffffffffffffffffffffff160217905550808273ffffffffffffffffffffffffffffffffffffffff168473ffffffffffffffffffffffffffffffffffffffff167fddf252ad1be2c89b69c2b068fc378daa952ba7f163c4a11628f55a4df523b3ef60405160405180910390a4611dd5838383600161235b565b505050565b60006002600083815260200190815260200160002060009054906101000a900473ffffffffffffffffffffffffffffffffffffffff169050919050565b611e1f61176e565b73ffffffffffffffffffffffffffffffffffffffff16611e3d610e7f565b73ffffffffffffffffffffffffffffffffffffffff1614611e93576040517f08c379a0000000000000000000000000000000000000000000000000000000008152600401611e8a90613ffd565b60405180910390fd5b565b6000600a60009054906101000a900473ffffffffffffffffffffffffffffffffffffffff16905081600a60006101000a81548173ffffffffffffffffffffffffffffffffffffffff021916908373ffffffffffffffffffffffffffffffffffffffff1602179055508173ffffffffffffffffffffffffffffffffffffffff168173ffffffffffffffffffffffffffffffffffffffff167f8be0079c531659141344cd1fd0a4f28419497f9722a3daafe3b4186f6b6457e060405160405180910390a35050565b611f75828260405180602001604052806000815250612361565b5050565b8173ffffffffffffffffffffffffffffffffffffffff168373ffffffffffffffffffffffffffffffffffffffff1603611fe7576040517f08c379a0000000000000000000000000000000000000000000000000000000008152600401611fde90614069565b60405180910390fd5b80600560008573ffffffffffffffffffffffffffffffffffffffff1673ffffffffffffffffffffffffffffffffffffffff16815260200190815260200160002060008473ffffffffffffffffffffffffffffffffffffffff1673ffffffffffffffffffffffffffffffffffffffff16815260200190815260200160002060006101000a81548160ff0219169083151502179055508173ffffffffffffffffffffffffffffffffffffffff168373ffffffffffffffffffffffffffffffffffffffff167f17307eab39ab6107e8899845ad3d59bd9653f200f220920489ca2b5937696c31836040516120d89190612c94565b60405180910390a3505050565b6120f0848484611ae1565b6120fc848484846123bc565b61213b576040517f08c379a0000000000000000000000000000000000000000000000000000000008152600401612132906140fb565b60405180910390fd5b50505050565b606060405180602001604052806000815250905090565b60606000600161216784612543565b01905060008167ffffffffffffffff81111561218657612185612ec0565b5b6040519080825280601f01601f1916602001820160405280156121b85781602001600182028036833780820191505090505b509050600082602001820190505b60011561221b578080600190039150507f3031323334353637383961626364656600000000000000000000000000000000600a86061a8153600a858161220f5761220e61411b565b5b049450600085036121c6575b819350505050919050565b60007f80ac58cd000000000000000000000000000000000000000000000000000000007bffffffffffffffffffffffffffffffffffffffffffffffffffffffff1916827bffffffffffffffffffffffffffffffffffffffffffffffffffffffff191614806122f157507f5b5e139f000000000000000000000000000000000000000000000000000000007bffffffffffffffffffffffffffffffffffffffffffffffffffffffff1916827bffffffffffffffffffffffffffffffffffffffffffffffffffffffff1916145b80612301575061230082612696565b5b9050919050565b60008073ffffffffffffffffffffffffffffffffffffffff1661232a83611dda565b73ffffffffffffffffffffffffffffffffffffffff1614159050919050565b61235584848484612700565b50505050565b50505050565b61236b838361182f565b61237860008484846123bc565b6123b7576040517f08c379a00000000000000000000000000000000000000000000000000000000081526004016123ae906140fb565b60405180910390fd5b505050565b60006123dd8473ffffffffffffffffffffffffffffffffffffffff1661285e565b15612536578373ffffffffffffffffffffffffffffffffffffffff1663150b7a0261240661176e565b8786866040518563ffffffff1660e01b8152600401612428949392919061419f565b6020604051808303816000875af192505050801561246457506040513d601f19601f820116820180604052508101906124619190614200565b60015b6124e6573d8060008114612494576040519150601f19603f3d011682016040523d82523d6000602084013e612499565b606091505b5060008151036124de576040517f08c379a00000000000000000000000000000000000000000000000000000000081526004016124d5906140fb565b60405180910390fd5b805181602001fd5b63150b7a0260e01b7bffffffffffffffffffffffffffffffffffffffffffffffffffffffff1916817bffffffffffffffffffffffffffffffffffffffffffffffffffffffff19161491505061253b565b600190505b949350505050565b600080600090507a184f03e93ff9f4daa797ed6e38ed64bf6a1f01000000000000000083106125a1577a184f03e93ff9f4daa797ed6e38ed64bf6a1f01000000000000000083816125975761259661411b565b5b0492506040810190505b6d04ee2d6d415b85acef810000000083106125de576d04ee2d6d415b85acef810000000083816125d4576125d361411b565b5b0492506020810190505b662386f26fc10000831061260d57662386f26fc1000083816126035761260261411b565b5b0492506010810190505b6305f5e1008310612636576305f5e100838161262c5761262b61411b565b5b0492506008810190505b612710831061265b5761271083816126515761265061411b565b5b0492506004810190505b6064831061267e57606483816126745761267361411b565b5b0492506002810190505b600a831061268d576001810190505b80915050919050565b60007f01ffc9a7000000000000000000000000000000000000000000000000000000007bffffffffffffffffffffffffffffffffffffffffffffffffffffffff1916827bffffffffffffffffffffffffffffffffffffffffffffffffffffffff1916149050919050565b61270c84848484612881565b6001811115612750576040517f08c379a00000000000000000000000000000000000000000000000000000000081526004016127479061429f565b60405180910390fd5b6000829050600073ffffffffffffffffffffffffffffffffffffffff168573ffffffffffffffffffffffffffffffffffffffff16036127975761279281612887565b6127d6565b8373ffffffffffffffffffffffffffffffffffffffff168573ffffffffffffffffffffffffffffffffffffffff16146127d5576127d485826128d0565b5b5b600073ffffffffffffffffffffffffffffffffffffffff168473ffffffffffffffffffffffffffffffffffffffff16036128185761281381612a3d565b612857565b8473ffffffffffffffffffffffffffffffffffffffff168473ffffffffffffffffffffffffffffffffffffffff1614612856576128558482612b0e565b5b5b5050505050565b6000808273ffffffffffffffffffffffffffffffffffffffff163b119050919050565b50505050565b6008805490506009600083815260200190815260200160002081905550600881908060018154018082558091505060019003906000526020600020016000909190919091505550565b600060016128dd84610db4565b6128e791906142bf565b90506000600760008481526020019081526020016000205490508181146129cc576000600660008673ffffffffffffffffffffffffffffffffffffffff1673ffffffffffffffffffffffffffffffffffffffff168152602001908152602001600020600084815260200190815260200160002054905080600660008773ffffffffffffffffffffffffffffffffffffffff1673ffffffffffffffffffffffffffffffffffffffff168152602001908152602001600020600084815260200190815260200160002081905550816007600083815260200190815260200160002081905550505b6007600084815260200190815260200160002060009055600660008573ffffffffffffffffffffffffffffffffffffffff1673ffffffffffffffffffffffffffffffffffffffff16815260200190815260200160002060008381526020019081526020016000206000905550505050565b60006001600880549050612a5191906142bf565b9050600060096000848152602001908152602001600020549050600060088381548110612a8157612a80613b96565b5b906000526020600020015490508060088381548110612aa357612aa2613b96565b5b906000526020600020018190555081600960008381526020019081526020016000208190555060096000858152602001908152602001600020600090556008805480612af257612af16142f3565b5b6001900381819060005260206000200160009055905550505050565b6000612b1983610db4565b905081600660008573ffffffffffffffffffffffffffffffffffffffff1673ffffffffffffffffffffffffffffffffffffffff168152602001908152602001600020600083815260200190815260200160002081905550806007600084815260200190815260200160002081905550505050565b6040518060e0016040528060008152602001600073ffffffffffffffffffffffffffffffffffffffff16815260200160608152602001600081526020016060815260200160608152602001606081525090565b6000604051905090565b600080fd5b600080fd5b60007fffffffff0000000000000000000000000000000000000000000000000000000082169050919050565b612c2981612bf4565b8114612c3457600080fd5b50565b600081359050612c4681612c20565b92915050565b600060208284031215612c6257612c61612bea565b5b6000612c7084828501612c37565b91505092915050565b60008115159050919050565b612c8e81612c79565b82525050565b6000602082019050612ca96000830184612c85565b92915050565b600081519050919050565b600082825260208201905092915050565b60005b83811015612ce9578082015181840152602081019050612cce565b60008484015250505050565b6000601f19601f8301169050919050565b6000612d1182612caf565b612d1b8185612cba565b9350612d2b818560208601612ccb565b612d3481612cf5565b840191505092915050565b60006020820190508181036000830152612d598184612d06565b905092915050565b6000819050919050565b612d7481612d61565b8114612d7f57600080fd5b50565b600081359050612d9181612d6b565b92915050565b600060208284031215612dad57612dac612bea565b5b6000612dbb84828501612d82565b91505092915050565b600073ffffffffffffffffffffffffffffffffffffffff82169050919050565b6000612def82612dc4565b9050919050565b612dff81612de4565b82525050565b6000602082019050612e1a6000830184612df6565b92915050565b612e2981612de4565b8114612e3457600080fd5b50565b600081359050612e4681612e20565b92915050565b60008060408385031215612e6357612e62612bea565b5b6000612e7185828601612e37565b9250506020612e8285828601612d82565b9150509250929050565b612e9581612d61565b82525050565b6000602082019050612eb06000830184612e8c565b92915050565b600080fd5b600080fd5b7f4e487b7100000000000000000000000000000000000000000000000000000000600052604160045260246000fd5b612ef882612cf5565b810181811067ffffffffffffffff82111715612f1757612f16612ec0565b5b80604052505050565b6000612f2a612be0565b9050612f368282612eef565b919050565b600067ffffffffffffffff821115612f5657612f55612ec0565b5b612f5f82612cf5565b9050602081019050919050565b82818337600083830152505050565b6000612f8e612f8984612f3b565b612f20565b905082815260208101848484011115612faa57612fa9612ebb565b5b612fb5848285612f6c565b509392505050565b600082601f830112612fd257612fd1612eb6565b5b8135612fe2848260208601612f7b565b91505092915050565b60008060008060008060c0878903121561300857613007612bea565b5b600061301689828a01612e37565b965050602061302789828a01612d82565b955050604087013567ffffffffffffffff81111561304857613047612bef565b5b61305489828a01612fbd565b945050606087013567ffffffffffffffff81111561307557613074612bef565b5b61308189828a01612fbd565b935050608087013567ffffffffffffffff8111156130a2576130a1612bef565b5b6130ae89828a01612fbd565b92505060a087013567ffffffffffffffff8111156130cf576130ce612bef565b5b6130db89828a01612fbd565b9150509295509295509295565b60008060006060848603121561310157613100612bea565b5b600061310f86828701612e37565b935050602061312086828701612e37565b925050604061313186828701612d82565b9150509250925092565b60006020828403121561315157613150612bea565b5b600061315f84828501612e37565b91505092915050565b61317181612c79565b811461317c57600080fd5b50565b60008135905061318e81613168565b92915050565b600080604083850312156131ab576131aa612bea565b5b60006131b985828601612e37565b92505060206131ca8582860161317f565b9150509250929050565b600067ffffffffffffffff8211156131ef576131ee612ec0565b5b6131f882612cf5565b9050602081019050919050565b6000613218613213846131d4565b612f20565b90508281526020810184848401111561323457613233612ebb565b5b61323f848285612f6c565b509392505050565b600082601f83011261325c5761325b612eb6565b5b813561326c848260208601613205565b91505092915050565b6000806000806080858703121561328f5761328e612bea565b5b600061329d87828801612e37565b94505060206132ae87828801612e37565b93505060406132bf87828801612d82565b925050606085013567ffffffffffffffff8111156132e0576132df612bef565b5b6132ec87828801613247565b91505092959194509250565b61330181612d61565b82525050565b61331081612de4565b82525050565b600082825260208201905092915050565b600061333282612caf565b61333c8185613316565b935061334c818560208601612ccb565b61335581612cf5565b840191505092915050565b600060e08301600083015161337860008601826132f8565b50602083015161338b6020860182613307565b50604083015184820360408601526133a38282613327565b91505060608301516133b860608601826132f8565b50608083015184820360808601526133d08282613327565b91505060a083015184820360a08601526133ea8282613327565b91505060c083015184820360c08601526134048282613327565b9150508091505092915050565b6000602082019050818103600083015261342b8184613360565b905092915050565b6000806040838503121561344a57613449612bea565b5b600061345885828601612e37565b925050602061346985828601612e37565b9150509250929050565b600060e082019050613488600083018a612e8c565b6134956020830189612df6565b81810360408301526134a78188612d06565b90506134b66060830187612e8c565b81810360808301526134c88186612d06565b905081810360a08301526134dc8185612d06565b905081810360c08301526134f08184612d06565b905098975050505050505050565b7f4e487b7100000000000000000000000000000000000000000000000000000000600052602260045260246000fd5b6000600282049050600182168061354557607f821691505b602082108103613558576135576134fe565b5b50919050565b7f4552433732313a20617070726f76616c20746f2063757272656e74206f776e6560008201527f7200000000000000000000000000000000000000000000000000000000000000602082015250565b60006135ba602183612cba565b91506135c58261355e565b604082019050919050565b600060208201905081810360008301526135e9816135ad565b9050919050565b7f4552433732313a20617070726f76652063616c6c6572206973206e6f7420746f60008201527f6b656e206f776e6572206f7220617070726f76656420666f7220616c6c000000602082015250565b600061364c603d83612cba565b9150613657826135f0565b604082019050919050565b6000602082019050818103600083015261367b8161363f565b9050919050565b60008190508160005260206000209050919050565b60006020601f8301049050919050565b600082821b905092915050565b6000600883026136e47fffffffffffffffffffffffffffffffffffffffffffffffffffffffffffffffff826136a7565b6136ee86836136a7565b95508019841693508086168417925050509392505050565b6000819050919050565b600061372b61372661372184612d61565b613706565b612d61565b9050919050565b6000819050919050565b61374583613710565b61375961375182613732565b8484546136b4565b825550505050565b600090565b61376e613761565b61377981848461373c565b505050565b5b8181101561379d57613792600082613766565b60018101905061377f565b5050565b601f8211156137e2576137b381613682565b6137bc84613697565b810160208510156137cb578190505b6137df6137d785613697565b83018261377e565b50505b505050565b600082821c905092915050565b6000613805600019846008026137e7565b1980831691505092915050565b600061381e83836137f4565b9150826002028217905092915050565b61383782612caf565b67ffffffffffffffff8111156138505761384f612ec0565b5b61385a825461352d565b6138658282856137a1565b600060209050601f8311600181146138985760008415613886578287015190505b6138908582613812565b8655506138f8565b601f1984166138a686613682565b60005b828110156138ce578489015182556001820191506020850194506020810190506138a9565b868310156138eb57848901516138e7601f8916826137f4565b8355505b6001600288020188555050505b505050505050565b7f4e487b7100000000000000000000000000000000000000000000000000000000600052601160045260246000fd5b600061393a82612d61565b915061394583612d61565b925082820190508082111561395d5761395c613900565b5b92915050565b600060c0820190506139786000830189612e8c565b818103602083015261398a8188612d06565b90506139996040830187612e8c565b81810360608301526139ab8186612d06565b905081810360808301526139bf8185612d06565b905081810360a08301526139d38184612d06565b9050979650505050505050565b7f4552433732313a2063616c6c6572206973206e6f7420746f6b656e206f776e6560008201527f72206f7220617070726f76656400000000000000000000000000000000000000602082015250565b6000613a3c602d83612cba565b9150613a47826139e0565b604082019050919050565b60006020820190508181036000830152613a6b81613a2f565b9050919050565b7f455243373231456e756d657261626c653a206f776e657220696e646578206f7560008201527f74206f6620626f756e6473000000000000000000000000000000000000000000602082015250565b6000613ace602b83612cba565b9150613ad982613a72565b604082019050919050565b60006020820190508181036000830152613afd81613ac1565b9050919050565b7f455243373231456e756d657261626c653a20676c6f62616c20696e646578206f60008201527f7574206f6620626f756e64730000000000000000000000000000000000000000602082015250565b6000613b60602c83612cba565b9150613b6b82613b04565b604082019050919050565b60006020820190508181036000830152613b8f81613b53565b9050919050565b7f4e487b7100000000000000000000000000000000000000000000000000000000600052603260045260246000fd5b7f4552433732313a20696e76616c696420746f6b656e2049440000000000000000600082015250565b6000613bfb601883612cba565b9150613c0682613bc5565b602082019050919050565b60006020820190508181036000830152613c2a81613bee565b9050919050565b7f4552433732313a2061646472657373207a65726f206973206e6f74206120766160008201527f6c6964206f776e65720000000000000000000000000000000000000000000000602082015250565b6000613c8d602983612cba565b9150613c9882613c31565b604082019050919050565b60006020820190508181036000830152613cbc81613c80565b9050919050565b600081905092915050565b6000613cd982612caf565b613ce38185613cc3565b9350613cf3818560208601612ccb565b80840191505092915050565b6000613d0b8285613cce565b9150613d178284613cce565b91508190509392505050565b7f4f776e61626c653a206e6577206f776e657220697320746865207a65726f206160008201527f6464726573730000000000000000000000000000000000000000000000000000602082015250565b6000613d7f602683612cba565b9150613d8a82613d23565b604082019050919050565b60006020820190508181036000830152613dae81613d72565b9050919050565b7f4552433732313a206d696e7420746f20746865207a65726f2061646472657373600082015250565b6000613deb602083612cba565b9150613df682613db5565b602082019050919050565b60006020820190508181036000830152613e1a81613dde565b9050919050565b7f4552433732313a20746f6b656e20616c7265616479206d696e74656400000000600082015250565b6000613e57601c83612cba565b9150613e6282613e21565b602082019050919050565b60006020820190508181036000830152613e8681613e4a565b9050919050565b7f4552433732313a207472616e736665722066726f6d20696e636f72726563742060008201527f6f776e6572000000000000000000000000000000000000000000000000000000602082015250565b6000613ee9602583612cba565b9150613ef482613e8d565b604082019050919050565b60006020820190508181036000830152613f1881613edc565b9050919050565b7f4552433732313a207472616e7366657220746f20746865207a65726f2061646460008201527f7265737300000000000000000000000000000000000000000000000000000000602082015250565b6000613f7b602483612cba565b9150613f8682613f1f565b604082019050919050565b60006020820190508181036000830152613faa81613f6e565b9050919050565b7f4f776e61626c653a2063616c6c6572206973206e6f7420746865206f776e6572600082015250565b6000613fe7602083612cba565b9150613ff282613fb1565b602082019050919050565b6000602082019050818103600083015261401681613fda565b9050919050565b7f4552433732313a20617070726f766520746f2063616c6c657200000000000000600082015250565b6000614053601983612cba565b915061405e8261401d565b602082019050919050565b6000602082019050818103600083015261408281614046565b9050919050565b7f4552433732313a207472616e7366657220746f206e6f6e20455243373231526560008201527f63656976657220696d706c656d656e7465720000000000000000000000000000602082015250565b60006140e5603283612cba565b91506140f082614089565b604082019050919050565b60006020820190508181036000830152614114816140d8565b9050919050565b7f4e487b7100000000000000000000000000000000000000000000000000000000600052601260045260246000fd5b600081519050919050565b600082825260208201905092915050565b60006141718261414a565b61417b8185614155565b935061418b818560208601612ccb565b61419481612cf5565b840191505092915050565b60006080820190506141b46000830187612df6565b6141c16020830186612df6565b6141ce6040830185612e8c565b81810360608301526141e08184614166565b905095945050505050565b6000815190506141fa81612c20565b92915050565b60006020828403121561421657614215612bea565b5b6000614224848285016141eb565b91505092915050565b7f455243373231456e756d657261626c653a20636f6e736563757469766520747260008201527f616e7366657273206e6f7420737570706f727465640000000000000000000000602082015250565b6000614289603583612cba565b91506142948261422d565b604082019050919050565b600060208201905081810360008301526142b88161427c565b9050919050565b60006142ca82612d61565b91506142d583612d61565b92508282039050818111156142ed576142ec613900565b5b92915050565b7f4e487b7100000000000000000000000000000000000000000000000000000000600052603160045260246000fdfea26469706673582212209ef61ef55d5c78712304d80370d2c51ebb80ec406406a37107129f1ebfc588fa64736f6c63430008130033",
  "immutableReferences": {},
  "source": "// SPDX-License-Identifier: MIT\npragma solidity ^0.8.9;\n\nimport \"@openzeppelin/contracts/token/ERC721/ERC721.sol\";\nimport \"@openzeppelin/contracts/token/ERC721/extensions/ERC721Enumerable.sol\";\nimport \"@openzeppelin/contracts/access/Ownable.sol\";\n\ncontract NFT is ERC721, ERC721Enumerable, Ownable {\n    constructor() ERC721(\"MyToken\", \"MTK\") {}\n\n    uint NFT_ID = 1;\n    struct Detail {\n        uint id;\n        address nftowner;\n        string imgUrl;\n        uint nftprice;\n        string nft_title;\n        string nftDescription;\n        string nftcreator;\n    }\n\n    mapping(uint=>Detail) public data;\n    mapping(address=>Detail[]) userdata;\n    event AddNFT(uint NFT_ID,string imgUrl,uint nftprice,string nft_title,string nftDescription,string nftcreator);\n    // uint256 public constant MINT_PRICE = 0.05 ether;\n\n\n    function safeMint(address to, uint256 tokenId) public onlyOwner {\n        _safeMint(to, tokenId);\n    }\n\n    // The following functions are overrides required by Solidity.\n\n    function _beforeTokenTransfer(address from, address to, uint256 tokenId, uint256 batchSize)\n        internal\n        override(ERC721, ERC721Enumerable)\n    {\n        super._beforeTokenTransfer(from, to, tokenId, batchSize);\n    }\n\n    function supportsInterface(bytes4 interfaceId)\n        public\n        view\n        override(ERC721, ERC721Enumerable)\n        returns (bool)\n    {\n        return super.supportsInterface(interfaceId);\n    }\n\n    function Add_nft (address _add, uint _price,string memory _title , string memory _imgUrl,string memory _des,string memory _creator ) public payable {\n        _mint(_add,NFT_ID);\n        data[NFT_ID] = Detail(NFT_ID,_add,_imgUrl,_price,_title,_des,_creator);\n        userdata[_add].push(Detail(NFT_ID,_add,_imgUrl,_price,_title,_des,_creator));\n        NFT_ID += 1;\n        emit AddNFT(NFT_ID,_imgUrl,_price,_title,_des,_creator);\n    }\n\n    function NFT_DATA (uint _id) public view returns(Detail memory){\n        return data[_id];\n    }\n\n\n    function IMG_URL (uint _id) public view returns(string memory){\n        return data[_id].imgUrl;\n    }\n\n}\n\n// 0x8AEeF79D959a5a17Aa600b1FC3Bd2476746C2Cd2\n\n\n// 0x64bc4849DC7683e9bA90D729346B6eB287f349d6 sepo\n\n\n// 0x546331d5F36b46139d4AE9c64e11E599e6c2F6c7 ganache\n\n// 0x5e8aA85eE6947BC322691baDD9290F6BAEb32C1A bsc\n\n// 0xe81cA4F5F4286f7a006E212763437456AE671808 bsc\n\n// 0xEF3B7d875b6B5a20dA5ef3575FD0D7a98675D4A6",
  "sourcePath": "/home/hp/Documents/block-chain/NFT_Marketplace/contracts/NFT.sol",
  "compiler": {
    "name": "solc",
    "version": "0.8.19+commit.7dd6d404.Emscripten.clang"
  },
  "schemaVersion": "3.4.13",
  "updatedAt": "2023-04-27T09:43:33.493Z",
  "networkType": "ethereum",
  "devdoc": {
    "events": {
      "Approval(address,address,uint256)": {
        "details": "Emitted when `owner` enables `approved` to manage the `tokenId` token."
      },
      "ApprovalForAll(address,address,bool)": {
        "details": "Emitted when `owner` enables or disables (`approved`) `operator` to manage all of its assets."
      },
      "Transfer(address,address,uint256)": {
        "details": "Emitted when `tokenId` token is transferred from `from` to `to`."
      }
    },
    "kind": "dev",
    "methods": {
      "approve(address,uint256)": {
        "details": "See {IERC721-approve}."
      },
      "balanceOf(address)": {
        "details": "See {IERC721-balanceOf}."
      },
      "getApproved(uint256)": {
        "details": "See {IERC721-getApproved}."
      },
      "isApprovedForAll(address,address)": {
        "details": "See {IERC721-isApprovedForAll}."
      },
      "name()": {
        "details": "See {IERC721Metadata-name}."
      },
      "owner()": {
        "details": "Returns the address of the current owner."
      },
      "ownerOf(uint256)": {
        "details": "See {IERC721-ownerOf}."
      },
      "renounceOwnership()": {
        "details": "Leaves the contract without owner. It will not be possible to call `onlyOwner` functions anymore. Can only be called by the current owner. NOTE: Renouncing ownership will leave the contract without an owner, thereby removing any functionality that is only available to the owner."
      },
      "safeTransferFrom(address,address,uint256)": {
        "details": "See {IERC721-safeTransferFrom}."
      },
      "safeTransferFrom(address,address,uint256,bytes)": {
        "details": "See {IERC721-safeTransferFrom}."
      },
      "setApprovalForAll(address,bool)": {
        "details": "See {IERC721-setApprovalForAll}."
      },
      "symbol()": {
        "details": "See {IERC721Metadata-symbol}."
      },
      "tokenByIndex(uint256)": {
        "details": "See {IERC721Enumerable-tokenByIndex}."
      },
      "tokenOfOwnerByIndex(address,uint256)": {
        "details": "See {IERC721Enumerable-tokenOfOwnerByIndex}."
      },
      "tokenURI(uint256)": {
        "details": "See {IERC721Metadata-tokenURI}."
      },
      "totalSupply()": {
        "details": "See {IERC721Enumerable-totalSupply}."
      },
      "transferFrom(address,address,uint256)": {
        "details": "See {IERC721-transferFrom}."
      },
      "transferOwnership(address)": {
        "details": "Transfers ownership of the contract to a new account (`newOwner`). Can only be called by the current owner."
      }
    },
    "version": 1
  },
  "userdoc": {
    "kind": "user",
    "methods": {},
    "version": 1
  }
}