{
  "contractName": "NFT",
  "abi": [
    {
      "inputs": [],
      "stateMutability": "nonpayable",
      "type": "constructor"
    },
    {
      "anonymous": false,
      "inputs": [
        {
          "indexed": false,
          "internalType": "uint256",
          "name": "NFT_ID",
          "type": "uint256"
        },
        {
          "indexed": false,
          "internalType": "string",
          "name": "imgUrl",
          "type": "string"
        },
        {
          "indexed": false,
          "internalType": "uint256",
          "name": "nftprice",
          "type": "uint256"
        },
        {
          "indexed": false,
          "internalType": "string",
          "name": "nft_title",
          "type": "string"
        }
      ],
      "name": "AddNFT",
      "type": "event"
    },
    {
      "anonymous": false,
      "inputs": [
        {
          "indexed": true,
          "internalType": "address",
          "name": "owner",
          "type": "address"
        },
        {
          "indexed": true,
          "internalType": "address",
          "name": "approved",
          "type": "address"
        },
        {
          "indexed": true,
          "internalType": "uint256",
          "name": "tokenId",
          "type": "uint256"
        }
      ],
      "name": "Approval",
      "type": "event"
    },
    {
      "anonymous": false,
      "inputs": [
        {
          "indexed": true,
          "internalType": "address",
          "name": "owner",
          "type": "address"
        },
        {
          "indexed": true,
          "internalType": "address",
          "name": "operator",
          "type": "address"
        },
        {
          "indexed": false,
          "internalType": "bool",
          "name": "approved",
          "type": "bool"
        }
      ],
      "name": "ApprovalForAll",
      "type": "event"
    },
    {
      "anonymous": false,
      "inputs": [
        {
          "indexed": true,
          "internalType": "address",
          "name": "previousOwner",
          "type": "address"
        },
        {
          "indexed": true,
          "internalType": "address",
          "name": "newOwner",
          "type": "address"
        }
      ],
      "name": "OwnershipTransferred",
      "type": "event"
    },
    {
      "anonymous": false,
      "inputs": [
        {
          "indexed": true,
          "internalType": "address",
          "name": "from",
          "type": "address"
        },
        {
          "indexed": true,
          "internalType": "address",
          "name": "to",
          "type": "address"
        },
        {
          "indexed": true,
          "internalType": "uint256",
          "name": "tokenId",
          "type": "uint256"
        }
      ],
      "name": "Transfer",
      "type": "event"
    },
    {
      "inputs": [
        {
          "internalType": "address",
          "name": "to",
          "type": "address"
        },
        {
          "internalType": "uint256",
          "name": "tokenId",
          "type": "uint256"
        }
      ],
      "name": "approve",
      "outputs": [],
      "stateMutability": "nonpayable",
      "type": "function"
    },
    {
      "inputs": [
        {
          "internalType": "address",
          "name": "owner",
          "type": "address"
        }
      ],
      "name": "balanceOf",
      "outputs": [
        {
          "internalType": "uint256",
          "name": "",
          "type": "uint256"
        }
      ],
      "stateMutability": "view",
      "type": "function",
      "constant": true
    },
    {
      "inputs": [
        {
          "internalType": "uint256",
          "name": "",
          "type": "uint256"
        }
      ],
      "name": "data",
      "outputs": [
        {
          "internalType": "uint256",
          "name": "id",
          "type": "uint256"
        },
        {
          "internalType": "address",
          "name": "nftowner",
          "type": "address"
        },
        {
          "internalType": "string",
          "name": "imgUrl",
          "type": "string"
        },
        {
          "internalType": "uint256",
          "name": "nftprice",
          "type": "uint256"
        },
        {
          "internalType": "string",
          "name": "nft_title",
          "type": "string"
        }
      ],
      "stateMutability": "view",
      "type": "function",
      "constant": true
    },
    {
      "inputs": [
        {
          "internalType": "uint256",
          "name": "tokenId",
          "type": "uint256"
        }
      ],
      "name": "getApproved",
      "outputs": [
        {
          "internalType": "address",
          "name": "",
          "type": "address"
        }
      ],
      "stateMutability": "view",
      "type": "function",
      "constant": true
    },
    {
      "inputs": [
        {
          "internalType": "address",
          "name": "owner",
          "type": "address"
        },
        {
          "internalType": "address",
          "name": "operator",
          "type": "address"
        }
      ],
      "name": "isApprovedForAll",
      "outputs": [
        {
          "internalType": "bool",
          "name": "",
          "type": "bool"
        }
      ],
      "stateMutability": "view",
      "type": "function",
      "constant": true
    },
    {
      "inputs": [],
      "name": "name",
      "outputs": [
        {
          "internalType": "string",
          "name": "",
          "type": "string"
        }
      ],
      "stateMutability": "view",
      "type": "function",
      "constant": true
    },
    {
      "inputs": [],
      "name": "owner",
      "outputs": [
        {
          "internalType": "address",
          "name": "",
          "type": "address"
        }
      ],
      "stateMutability": "view",
      "type": "function",
      "constant": true
    },
    {
      "inputs": [
        {
          "internalType": "uint256",
          "name": "tokenId",
          "type": "uint256"
        }
      ],
      "name": "ownerOf",
      "outputs": [
        {
          "internalType": "address",
          "name": "",
          "type": "address"
        }
      ],
      "stateMutability": "view",
      "type": "function",
      "constant": true
    },
    {
      "inputs": [],
      "name": "renounceOwnership",
      "outputs": [],
      "stateMutability": "nonpayable",
      "type": "function"
    },
    {
      "inputs": [
        {
          "internalType": "address",
          "name": "from",
          "type": "address"
        },
        {
          "internalType": "address",
          "name": "to",
          "type": "address"
        },
        {
          "internalType": "uint256",
          "name": "tokenId",
          "type": "uint256"
        }
      ],
      "name": "safeTransferFrom",
      "outputs": [],
      "stateMutability": "nonpayable",
      "type": "function"
    },
    {
      "inputs": [
        {
          "internalType": "address",
          "name": "from",
          "type": "address"
        },
        {
          "internalType": "address",
          "name": "to",
          "type": "address"
        },
        {
          "internalType": "uint256",
          "name": "tokenId",
          "type": "uint256"
        },
        {
          "internalType": "bytes",
          "name": "data",
          "type": "bytes"
        }
      ],
      "name": "safeTransferFrom",
      "outputs": [],
      "stateMutability": "nonpayable",
      "type": "function"
    },
    {
      "inputs": [
        {
          "internalType": "address",
          "name": "operator",
          "type": "address"
        },
        {
          "internalType": "bool",
          "name": "approved",
          "type": "bool"
        }
      ],
      "name": "setApprovalForAll",
      "outputs": [],
      "stateMutability": "nonpayable",
      "type": "function"
    },
    {
      "inputs": [],
      "name": "symbol",
      "outputs": [
        {
          "internalType": "string",
          "name": "",
          "type": "string"
        }
      ],
      "stateMutability": "view",
      "type": "function",
      "constant": true
    },
    {
      "inputs": [
        {
          "internalType": "uint256",
          "name": "index",
          "type": "uint256"
        }
      ],
      "name": "tokenByIndex",
      "outputs": [
        {
          "internalType": "uint256",
          "name": "",
          "type": "uint256"
        }
      ],
      "stateMutability": "view",
      "type": "function",
      "constant": true
    },
    {
      "inputs": [
        {
          "internalType": "address",
          "name": "owner",
          "type": "address"
        },
        {
          "internalType": "uint256",
          "name": "index",
          "type": "uint256"
        }
      ],
      "name": "tokenOfOwnerByIndex",
      "outputs": [
        {
          "internalType": "uint256",
          "name": "",
          "type": "uint256"
        }
      ],
      "stateMutability": "view",
      "type": "function",
      "constant": true
    },
    {
      "inputs": [
        {
          "internalType": "uint256",
          "name": "tokenId",
          "type": "uint256"
        }
      ],
      "name": "tokenURI",
      "outputs": [
        {
          "internalType": "string",
          "name": "",
          "type": "string"
        }
      ],
      "stateMutability": "view",
      "type": "function",
      "constant": true
    },
    {
      "inputs": [],
      "name": "totalSupply",
      "outputs": [
        {
          "internalType": "uint256",
          "name": "",
          "type": "uint256"
        }
      ],
      "stateMutability": "view",
      "type": "function",
      "constant": true
    },
    {
      "inputs": [
        {
          "internalType": "address",
          "name": "from",
          "type": "address"
        },
        {
          "internalType": "address",
          "name": "to",
          "type": "address"
        },
        {
          "internalType": "uint256",
          "name": "tokenId",
          "type": "uint256"
        }
      ],
      "name": "transferFrom",
      "outputs": [],
      "stateMutability": "nonpayable",
      "type": "function"
    },
    {
      "inputs": [
        {
          "internalType": "address",
          "name": "newOwner",
          "type": "address"
        }
      ],
      "name": "transferOwnership",
      "outputs": [],
      "stateMutability": "nonpayable",
      "type": "function"
    },
    {
      "inputs": [
        {
          "internalType": "address",
          "name": "to",
          "type": "address"
        },
        {
          "internalType": "uint256",
          "name": "tokenId",
          "type": "uint256"
        }
      ],
      "name": "safeMint",
      "outputs": [],
      "stateMutability": "nonpayable",
      "type": "function"
    },
    {
      "inputs": [
        {
          "internalType": "bytes4",
          "name": "interfaceId",
          "type": "bytes4"
        }
      ],
      "name": "supportsInterface",
      "outputs": [
        {
          "internalType": "bool",
          "name": "",
          "type": "bool"
        }
      ],
      "stateMutability": "view",
      "type": "function",
      "constant": true
    },
    {
      "inputs": [
        {
          "internalType": "address",
          "name": "_add",
          "type": "address"
        },
        {
          "internalType": "uint256",
          "name": "_price",
          "type": "uint256"
        },
        {
          "internalType": "string",
          "name": "_title",
          "type": "string"
        },
        {
          "internalType": "string",
          "name": "_imgUrl",
          "type": "string"
        }
      ],
      "name": "Add_nft",
      "outputs": [],
      "stateMutability": "payable",
      "type": "function",
      "payable": true
    }
  ],
  "bytecode": "0x60806040526001600b553480156200001657600080fd5b506040518060400160405280600781526020017f4d79546f6b656e000000000000000000000000000000000000000000000000008152506040518060400160405280600381526020017f4d544b0000000000000000000000000000000000000000000000000000000000815250816000908162000094919062000417565b508060019081620000a6919062000417565b505050620000c9620000bd620000cf60201b60201c565b620000d760201b60201c565b620004fe565b600033905090565b6000600a60009054906101000a900473ffffffffffffffffffffffffffffffffffffffff16905081600a60006101000a81548173ffffffffffffffffffffffffffffffffffffffff021916908373ffffffffffffffffffffffffffffffffffffffff1602179055508173ffffffffffffffffffffffffffffffffffffffff168173ffffffffffffffffffffffffffffffffffffffff167f8be0079c531659141344cd1fd0a4f28419497f9722a3daafe3b4186f6b6457e060405160405180910390a35050565b600081519050919050565b7f4e487b7100000000000000000000000000000000000000000000000000000000600052604160045260246000fd5b7f4e487b7100000000000000000000000000000000000000000000000000000000600052602260045260246000fd5b600060028204905060018216806200021f57607f821691505b602082108103620002355762000234620001d7565b5b50919050565b60008190508160005260206000209050919050565b60006020601f8301049050919050565b600082821b905092915050565b6000600883026200029f7fffffffffffffffffffffffffffffffffffffffffffffffffffffffffffffffff8262000260565b620002ab868362000260565b95508019841693508086168417925050509392505050565b6000819050919050565b6000819050919050565b6000620002f8620002f2620002ec84620002c3565b620002cd565b620002c3565b9050919050565b6000819050919050565b6200031483620002d7565b6200032c6200032382620002ff565b8484546200026d565b825550505050565b600090565b6200034362000334565b6200035081848462000309565b505050565b5b8181101562000378576200036c60008262000339565b60018101905062000356565b5050565b601f821115620003c75762000391816200023b565b6200039c8462000250565b81016020851015620003ac578190505b620003c4620003bb8562000250565b83018262000355565b50505b505050565b600082821c905092915050565b6000620003ec60001984600802620003cc565b1980831691505092915050565b6000620004078383620003d9565b9150826002028217905092915050565b62000422826200019d565b67ffffffffffffffff8111156200043e576200043d620001a8565b5b6200044a825462000206565b620004578282856200037c565b600060209050601f8311600181146200048f57600084156200047a578287015190505b620004868582620003f9565b865550620004f6565b601f1984166200049f866200023b565b60005b82811015620004c957848901518255600182019150602085019450602081019050620004a2565b86831015620004e95784890151620004e5601f891682620003d9565b8355505b6001600288020188555050505b505050505050565b613b6d806200050e6000396000f3fe6080604052600436106101355760003560e01c8063715018a6116100ab578063b88d4fde1161006f578063b88d4fde14610438578063c113448814610461578063c87b56dd1461047d578063e985e9c5146104ba578063f0ba8440146104f7578063f2fde38b1461053857610135565b8063715018a6146103795780638da5cb5b1461039057806395d89b41146103bb578063a1448194146103e6578063a22cb4651461040f57610135565b806323b872dd116100fd57806323b872dd146102335780632f745c591461025c57806342842e0e146102995780634f6ccce7146102c25780636352211e146102ff57806370a082311461033c57610135565b806301ffc9a71461013a57806306fdde0314610177578063081812fc146101a2578063095ea7b3146101df57806318160ddd14610208575b600080fd5b34801561014657600080fd5b50610161600480360381019061015c919061264e565b610561565b60405161016e9190612696565b60405180910390f35b34801561018357600080fd5b5061018c610573565b6040516101999190612741565b60405180910390f35b3480156101ae57600080fd5b506101c960048036038101906101c49190612799565b610605565b6040516101d69190612807565b60405180910390f35b3480156101eb57600080fd5b506102066004803603810190610201919061284e565b61064b565b005b34801561021457600080fd5b5061021d610762565b60405161022a919061289d565b60405180910390f35b34801561023f57600080fd5b5061025a600480360381019061025591906128b8565b61076f565b005b34801561026857600080fd5b50610283600480360381019061027e919061284e565b6107cf565b604051610290919061289d565b60405180910390f35b3480156102a557600080fd5b506102c060048036038101906102bb91906128b8565b610874565b005b3480156102ce57600080fd5b506102e960048036038101906102e49190612799565b610894565b6040516102f6919061289d565b60405180910390f35b34801561030b57600080fd5b5061032660048036038101906103219190612799565b610905565b6040516103339190612807565b60405180910390f35b34801561034857600080fd5b50610363600480360381019061035e919061290b565b61098b565b604051610370919061289d565b60405180910390f35b34801561038557600080fd5b5061038e610a42565b005b34801561039c57600080fd5b506103a5610a56565b6040516103b29190612807565b60405180910390f35b3480156103c757600080fd5b506103d0610a80565b6040516103dd9190612741565b60405180910390f35b3480156103f257600080fd5b5061040d6004803603810190610408919061284e565b610b12565b005b34801561041b57600080fd5b5061043660048036038101906104319190612964565b610b28565b005b34801561044457600080fd5b5061045f600480360381019061045a9190612ad9565b610b3e565b005b61047b60048036038101906104769190612bfd565b610ba0565b005b34801561048957600080fd5b506104a4600480360381019061049f9190612799565b610e19565b6040516104b19190612741565b60405180910390f35b3480156104c657600080fd5b506104e160048036038101906104dc9190612c9c565b610e81565b6040516104ee9190612696565b60405180910390f35b34801561050357600080fd5b5061051e60048036038101906105199190612799565b610f15565b60405161052f959493929190612cdc565b60405180910390f35b34801561054457600080fd5b5061055f600480360381019061055a919061290b565b61107b565b005b600061056c826110fe565b9050919050565b60606000805461058290612d6c565b80601f01602080910402602001604051908101604052809291908181526020018280546105ae90612d6c565b80156105fb5780601f106105d0576101008083540402835291602001916105fb565b820191906000526020600020905b8154815290600101906020018083116105de57829003601f168201915b5050505050905090565b600061061082611178565b6004600083815260200190815260200160002060009054906101000a900473ffffffffffffffffffffffffffffffffffffffff169050919050565b600061065682610905565b90508073ffffffffffffffffffffffffffffffffffffffff168373ffffffffffffffffffffffffffffffffffffffff16036106c6576040517f08c379a00000000000000000000000000000000000000000000000000000000081526004016106bd90612e0f565b60405180910390fd5b8073ffffffffffffffffffffffffffffffffffffffff166106e56111c3565b73ffffffffffffffffffffffffffffffffffffffff16148061071457506107138161070e6111c3565b610e81565b5b610753576040517f08c379a000000000000000000000000000000000000000000000000000000000815260040161074a90612ea1565b60405180910390fd5b61075d83836111cb565b505050565b6000600880549050905090565b61078061077a6111c3565b82611284565b6107bf576040517f08c379a00000000000000000000000000000000000000000000000000000000081526004016107b690612f33565b60405180910390fd5b6107ca838383611319565b505050565b60006107da8361098b565b821061081b576040517f08c379a000000000000000000000000000000000000000000000000000000000815260040161081290612fc5565b60405180910390fd5b600660008473ffffffffffffffffffffffffffffffffffffffff1673ffffffffffffffffffffffffffffffffffffffff168152602001908152602001600020600083815260200190815260200160002054905092915050565b61088f83838360405180602001604052806000815250610b3e565b505050565b600061089e610762565b82106108df576040517f08c379a00000000000000000000000000000000000000000000000000000000081526004016108d690613057565b60405180910390fd5b600882815481106108f3576108f2613077565b5b90600052602060002001549050919050565b60008061091183611612565b9050600073ffffffffffffffffffffffffffffffffffffffff168173ffffffffffffffffffffffffffffffffffffffff1603610982576040517f08c379a0000000000000000000000000000000000000000000000000000000008152600401610979906130f2565b60405180910390fd5b80915050919050565b60008073ffffffffffffffffffffffffffffffffffffffff168273ffffffffffffffffffffffffffffffffffffffff16036109fb576040517f08c379a00000000000000000000000000000000000000000000000000000000081526004016109f290613184565b60405180910390fd5b600360008373ffffffffffffffffffffffffffffffffffffffff1673ffffffffffffffffffffffffffffffffffffffff168152602001908152602001600020549050919050565b610a4a61164f565b610a5460006116cd565b565b6000600a60009054906101000a900473ffffffffffffffffffffffffffffffffffffffff16905090565b606060018054610a8f90612d6c565b80601f0160208091040260200160405190810160405280929190818152602001828054610abb90612d6c565b8015610b085780601f10610add57610100808354040283529160200191610b08565b820191906000526020600020905b815481529060010190602001808311610aeb57829003601f168201915b5050505050905090565b610b1a61164f565b610b248282611793565b5050565b610b3a610b336111c3565b83836117b1565b5050565b610b4f610b496111c3565b83611284565b610b8e576040517f08c379a0000000000000000000000000000000000000000000000000000000008152600401610b8590612f33565b60405180910390fd5b610b9a8484848461191d565b50505050565b610bac84600b54611979565b6040518060a00160405280600b5481526020018573ffffffffffffffffffffffffffffffffffffffff16815260200182815260200184815260200183815250600c6000600b5481526020019081526020016000206000820151816000015560208201518160010160006101000a81548173ffffffffffffffffffffffffffffffffffffffff021916908373ffffffffffffffffffffffffffffffffffffffff1602179055506040820151816002019081610c669190613350565b50606082015181600301556080820151816004019081610c869190613350565b50905050600d60008573ffffffffffffffffffffffffffffffffffffffff1673ffffffffffffffffffffffffffffffffffffffff1681526020019081526020016000206040518060a00160405280600b5481526020018673ffffffffffffffffffffffffffffffffffffffff1681526020018381526020018581526020018481525090806001815401808255809150506001900390600052602060002090600502016000909190919091506000820151816000015560208201518160010160006101000a81548173ffffffffffffffffffffffffffffffffffffffff021916908373ffffffffffffffffffffffffffffffffffffffff1602179055506040820151816002019081610d979190613350565b50606082015181600301556080820151816004019081610db79190613350565b5050506001600b6000828254610dcd9190613451565b925050819055507f15be424d3d2b23f61772d2c914387b960d54d390febf85bc881b6ff41a694b6e600b54828585604051610e0b9493929190613485565b60405180910390a150505050565b6060610e2482611178565b6000610e2e611b96565b90506000815111610e4e5760405180602001604052806000815250610e79565b80610e5884611bad565b604051602001610e69929190613514565b6040516020818303038152906040525b915050919050565b6000600560008473ffffffffffffffffffffffffffffffffffffffff1673ffffffffffffffffffffffffffffffffffffffff16815260200190815260200160002060008373ffffffffffffffffffffffffffffffffffffffff1673ffffffffffffffffffffffffffffffffffffffff16815260200190815260200160002060009054906101000a900460ff16905092915050565b600c6020528060005260406000206000915090508060000154908060010160009054906101000a900473ffffffffffffffffffffffffffffffffffffffff1690806002018054610f6490612d6c565b80601f0160208091040260200160405190810160405280929190818152602001828054610f9090612d6c565b8015610fdd5780601f10610fb257610100808354040283529160200191610fdd565b820191906000526020600020905b815481529060010190602001808311610fc057829003601f168201915b505050505090806003015490806004018054610ff890612d6c565b80601f016020809104026020016040519081016040528092919081815260200182805461102490612d6c565b80156110715780601f1061104657610100808354040283529160200191611071565b820191906000526020600020905b81548152906001019060200180831161105457829003601f168201915b5050505050905085565b61108361164f565b600073ffffffffffffffffffffffffffffffffffffffff168173ffffffffffffffffffffffffffffffffffffffff16036110f2576040517f08c379a00000000000000000000000000000000000000000000000000000000081526004016110e9906135aa565b60405180910390fd5b6110fb816116cd565b50565b60007f780e9d63000000000000000000000000000000000000000000000000000000007bffffffffffffffffffffffffffffffffffffffffffffffffffffffff1916827bffffffffffffffffffffffffffffffffffffffffffffffffffffffff19161480611171575061117082611c7b565b5b9050919050565b61118181611d5d565b6111c0576040517f08c379a00000000000000000000000000000000000000000000000000000000081526004016111b7906130f2565b60405180910390fd5b50565b600033905090565b816004600083815260200190815260200160002060006101000a81548173ffffffffffffffffffffffffffffffffffffffff021916908373ffffffffffffffffffffffffffffffffffffffff160217905550808273ffffffffffffffffffffffffffffffffffffffff1661123e83610905565b73ffffffffffffffffffffffffffffffffffffffff167f8c5be1e5ebec7d5bd14f71427d1e84f3dd0314c0f7b2291e5b200ac8c7c3b92560405160405180910390a45050565b60008061129083610905565b90508073ffffffffffffffffffffffffffffffffffffffff168473ffffffffffffffffffffffffffffffffffffffff1614806112d257506112d18185610e81565b5b8061131057508373ffffffffffffffffffffffffffffffffffffffff166112f884610605565b73ffffffffffffffffffffffffffffffffffffffff16145b91505092915050565b8273ffffffffffffffffffffffffffffffffffffffff1661133982610905565b73ffffffffffffffffffffffffffffffffffffffff161461138f576040517f08c379a00000000000000000000000000000000000000000000000000000000081526004016113869061363c565b60405180910390fd5b600073ffffffffffffffffffffffffffffffffffffffff168273ffffffffffffffffffffffffffffffffffffffff16036113fe576040517f08c379a00000000000000000000000000000000000000000000000000000000081526004016113f5906136ce565b60405180910390fd5b61140b8383836001611d9e565b8273ffffffffffffffffffffffffffffffffffffffff1661142b82610905565b73ffffffffffffffffffffffffffffffffffffffff1614611481576040517f08c379a00000000000000000000000000000000000000000000000000000000081526004016114789061363c565b60405180910390fd5b6004600082815260200190815260200160002060006101000a81549073ffffffffffffffffffffffffffffffffffffffff02191690556001600360008573ffffffffffffffffffffffffffffffffffffffff1673ffffffffffffffffffffffffffffffffffffffff168152602001908152602001600020600082825403925050819055506001600360008473ffffffffffffffffffffffffffffffffffffffff1673ffffffffffffffffffffffffffffffffffffffff16815260200190815260200160002060008282540192505081905550816002600083815260200190815260200160002060006101000a81548173ffffffffffffffffffffffffffffffffffffffff021916908373ffffffffffffffffffffffffffffffffffffffff160217905550808273ffffffffffffffffffffffffffffffffffffffff168473ffffffffffffffffffffffffffffffffffffffff167fddf252ad1be2c89b69c2b068fc378daa952ba7f163c4a11628f55a4df523b3ef60405160405180910390a461160d8383836001611db0565b505050565b60006002600083815260200190815260200160002060009054906101000a900473ffffffffffffffffffffffffffffffffffffffff169050919050565b6116576111c3565b73ffffffffffffffffffffffffffffffffffffffff16611675610a56565b73ffffffffffffffffffffffffffffffffffffffff16146116cb576040517f08c379a00000000000000000000000000000000000000000000000000000000081526004016116c29061373a565b60405180910390fd5b565b6000600a60009054906101000a900473ffffffffffffffffffffffffffffffffffffffff16905081600a60006101000a81548173ffffffffffffffffffffffffffffffffffffffff021916908373ffffffffffffffffffffffffffffffffffffffff1602179055508173ffffffffffffffffffffffffffffffffffffffff168173ffffffffffffffffffffffffffffffffffffffff167f8be0079c531659141344cd1fd0a4f28419497f9722a3daafe3b4186f6b6457e060405160405180910390a35050565b6117ad828260405180602001604052806000815250611db6565b5050565b8173ffffffffffffffffffffffffffffffffffffffff168373ffffffffffffffffffffffffffffffffffffffff160361181f576040517f08c379a0000000000000000000000000000000000000000000000000000000008152600401611816906137a6565b60405180910390fd5b80600560008573ffffffffffffffffffffffffffffffffffffffff1673ffffffffffffffffffffffffffffffffffffffff16815260200190815260200160002060008473ffffffffffffffffffffffffffffffffffffffff1673ffffffffffffffffffffffffffffffffffffffff16815260200190815260200160002060006101000a81548160ff0219169083151502179055508173ffffffffffffffffffffffffffffffffffffffff168373ffffffffffffffffffffffffffffffffffffffff167f17307eab39ab6107e8899845ad3d59bd9653f200f220920489ca2b5937696c31836040516119109190612696565b60405180910390a3505050565b611928848484611319565b61193484848484611e11565b611973576040517f08c379a000000000000000000000000000000000000000000000000000000000815260040161196a90613838565b60405180910390fd5b50505050565b600073ffffffffffffffffffffffffffffffffffffffff168273ffffffffffffffffffffffffffffffffffffffff16036119e8576040517f08c379a00000000000000000000000000000000000000000000000000000000081526004016119df906138a4565b60405180910390fd5b6119f181611d5d565b15611a31576040517f08c379a0000000000000000000000000000000000000000000000000000000008152600401611a2890613910565b60405180910390fd5b611a3f600083836001611d9e565b611a4881611d5d565b15611a88576040517f08c379a0000000000000000000000000000000000000000000000000000000008152600401611a7f90613910565b60405180910390fd5b6001600360008473ffffffffffffffffffffffffffffffffffffffff1673ffffffffffffffffffffffffffffffffffffffff16815260200190815260200160002060008282540192505081905550816002600083815260200190815260200160002060006101000a81548173ffffffffffffffffffffffffffffffffffffffff021916908373ffffffffffffffffffffffffffffffffffffffff160217905550808273ffffffffffffffffffffffffffffffffffffffff16600073ffffffffffffffffffffffffffffffffffffffff167fddf252ad1be2c89b69c2b068fc378daa952ba7f163c4a11628f55a4df523b3ef60405160405180910390a4611b92600083836001611db0565b5050565b606060405180602001604052806000815250905090565b606060006001611bbc84611f98565b01905060008167ffffffffffffffff811115611bdb57611bda6129ae565b5b6040519080825280601f01601f191660200182016040528015611c0d5781602001600182028036833780820191505090505b509050600082602001820190505b600115611c70578080600190039150507f3031323334353637383961626364656600000000000000000000000000000000600a86061a8153600a8581611c6457611c63613930565b5b04945060008503611c1b575b819350505050919050565b60007f80ac58cd000000000000000000000000000000000000000000000000000000007bffffffffffffffffffffffffffffffffffffffffffffffffffffffff1916827bffffffffffffffffffffffffffffffffffffffffffffffffffffffff19161480611d4657507f5b5e139f000000000000000000000000000000000000000000000000000000007bffffffffffffffffffffffffffffffffffffffffffffffffffffffff1916827bffffffffffffffffffffffffffffffffffffffffffffffffffffffff1916145b80611d565750611d55826120eb565b5b9050919050565b60008073ffffffffffffffffffffffffffffffffffffffff16611d7f83611612565b73ffffffffffffffffffffffffffffffffffffffff1614159050919050565b611daa84848484612155565b50505050565b50505050565b611dc08383611979565b611dcd6000848484611e11565b611e0c576040517f08c379a0000000000000000000000000000000000000000000000000000000008152600401611e0390613838565b60405180910390fd5b505050565b6000611e328473ffffffffffffffffffffffffffffffffffffffff166122b3565b15611f8b578373ffffffffffffffffffffffffffffffffffffffff1663150b7a02611e5b6111c3565b8786866040518563ffffffff1660e01b8152600401611e7d94939291906139b4565b6020604051808303816000875af1925050508015611eb957506040513d601f19601f82011682018060405250810190611eb69190613a15565b60015b611f3b573d8060008114611ee9576040519150601f19603f3d011682016040523d82523d6000602084013e611eee565b606091505b506000815103611f33576040517f08c379a0000000000000000000000000000000000000000000000000000000008152600401611f2a90613838565b60405180910390fd5b805181602001fd5b63150b7a0260e01b7bffffffffffffffffffffffffffffffffffffffffffffffffffffffff1916817bffffffffffffffffffffffffffffffffffffffffffffffffffffffff191614915050611f90565b600190505b949350505050565b600080600090507a184f03e93ff9f4daa797ed6e38ed64bf6a1f0100000000000000008310611ff6577a184f03e93ff9f4daa797ed6e38ed64bf6a1f0100000000000000008381611fec57611feb613930565b5b0492506040810190505b6d04ee2d6d415b85acef81000000008310612033576d04ee2d6d415b85acef8100000000838161202957612028613930565b5b0492506020810190505b662386f26fc10000831061206257662386f26fc10000838161205857612057613930565b5b0492506010810190505b6305f5e100831061208b576305f5e100838161208157612080613930565b5b0492506008810190505b61271083106120b05761271083816120a6576120a5613930565b5b0492506004810190505b606483106120d357606483816120c9576120c8613930565b5b0492506002810190505b600a83106120e2576001810190505b80915050919050565b60007f01ffc9a7000000000000000000000000000000000000000000000000000000007bffffffffffffffffffffffffffffffffffffffffffffffffffffffff1916827bffffffffffffffffffffffffffffffffffffffffffffffffffffffff1916149050919050565b612161848484846122d6565b60018111156121a5576040517f08c379a000000000000000000000000000000000000000000000000000000000815260040161219c90613ab4565b60405180910390fd5b6000829050600073ffffffffffffffffffffffffffffffffffffffff168573ffffffffffffffffffffffffffffffffffffffff16036121ec576121e7816122dc565b61222b565b8373ffffffffffffffffffffffffffffffffffffffff168573ffffffffffffffffffffffffffffffffffffffff161461222a576122298582612325565b5b5b600073ffffffffffffffffffffffffffffffffffffffff168473ffffffffffffffffffffffffffffffffffffffff160361226d5761226881612492565b6122ac565b8473ffffffffffffffffffffffffffffffffffffffff168473ffffffffffffffffffffffffffffffffffffffff16146122ab576122aa8482612563565b5b5b5050505050565b6000808273ffffffffffffffffffffffffffffffffffffffff163b119050919050565b50505050565b6008805490506009600083815260200190815260200160002081905550600881908060018154018082558091505060019003906000526020600020016000909190919091505550565b600060016123328461098b565b61233c9190613ad4565b9050600060076000848152602001908152602001600020549050818114612421576000600660008673ffffffffffffffffffffffffffffffffffffffff1673ffffffffffffffffffffffffffffffffffffffff168152602001908152602001600020600084815260200190815260200160002054905080600660008773ffffffffffffffffffffffffffffffffffffffff1673ffffffffffffffffffffffffffffffffffffffff168152602001908152602001600020600084815260200190815260200160002081905550816007600083815260200190815260200160002081905550505b6007600084815260200190815260200160002060009055600660008573ffffffffffffffffffffffffffffffffffffffff1673ffffffffffffffffffffffffffffffffffffffff16815260200190815260200160002060008381526020019081526020016000206000905550505050565b600060016008805490506124a69190613ad4565b90506000600960008481526020019081526020016000205490506000600883815481106124d6576124d5613077565b5b9060005260206000200154905080600883815481106124f8576124f7613077565b5b90600052602060002001819055508160096000838152602001908152602001600020819055506009600085815260200190815260200160002060009055600880548061254757612546613b08565b5b6001900381819060005260206000200160009055905550505050565b600061256e8361098b565b905081600660008573ffffffffffffffffffffffffffffffffffffffff1673ffffffffffffffffffffffffffffffffffffffff168152602001908152602001600020600083815260200190815260200160002081905550806007600084815260200190815260200160002081905550505050565b6000604051905090565b600080fd5b600080fd5b60007fffffffff0000000000000000000000000000000000000000000000000000000082169050919050565b61262b816125f6565b811461263657600080fd5b50565b60008135905061264881612622565b92915050565b600060208284031215612664576126636125ec565b5b600061267284828501612639565b91505092915050565b60008115159050919050565b6126908161267b565b82525050565b60006020820190506126ab6000830184612687565b92915050565b600081519050919050565b600082825260208201905092915050565b60005b838110156126eb5780820151818401526020810190506126d0565b60008484015250505050565b6000601f19601f8301169050919050565b6000612713826126b1565b61271d81856126bc565b935061272d8185602086016126cd565b612736816126f7565b840191505092915050565b6000602082019050818103600083015261275b8184612708565b905092915050565b6000819050919050565b61277681612763565b811461278157600080fd5b50565b6000813590506127938161276d565b92915050565b6000602082840312156127af576127ae6125ec565b5b60006127bd84828501612784565b91505092915050565b600073ffffffffffffffffffffffffffffffffffffffff82169050919050565b60006127f1826127c6565b9050919050565b612801816127e6565b82525050565b600060208201905061281c60008301846127f8565b92915050565b61282b816127e6565b811461283657600080fd5b50565b60008135905061284881612822565b92915050565b60008060408385031215612865576128646125ec565b5b600061287385828601612839565b925050602061288485828601612784565b9150509250929050565b61289781612763565b82525050565b60006020820190506128b2600083018461288e565b92915050565b6000806000606084860312156128d1576128d06125ec565b5b60006128df86828701612839565b93505060206128f086828701612839565b925050604061290186828701612784565b9150509250925092565b600060208284031215612921576129206125ec565b5b600061292f84828501612839565b91505092915050565b6129418161267b565b811461294c57600080fd5b50565b60008135905061295e81612938565b92915050565b6000806040838503121561297b5761297a6125ec565b5b600061298985828601612839565b925050602061299a8582860161294f565b9150509250929050565b600080fd5b600080fd5b7f4e487b7100000000000000000000000000000000000000000000000000000000600052604160045260246000fd5b6129e6826126f7565b810181811067ffffffffffffffff82111715612a0557612a046129ae565b5b80604052505050565b6000612a186125e2565b9050612a2482826129dd565b919050565b600067ffffffffffffffff821115612a4457612a436129ae565b5b612a4d826126f7565b9050602081019050919050565b82818337600083830152505050565b6000612a7c612a7784612a29565b612a0e565b905082815260208101848484011115612a9857612a976129a9565b5b612aa3848285612a5a565b509392505050565b600082601f830112612ac057612abf6129a4565b5b8135612ad0848260208601612a69565b91505092915050565b60008060008060808587031215612af357612af26125ec565b5b6000612b0187828801612839565b9450506020612b1287828801612839565b9350506040612b2387828801612784565b925050606085013567ffffffffffffffff811115612b4457612b436125f1565b5b612b5087828801612aab565b91505092959194509250565b600067ffffffffffffffff821115612b7757612b766129ae565b5b612b80826126f7565b9050602081019050919050565b6000612ba0612b9b84612b5c565b612a0e565b905082815260208101848484011115612bbc57612bbb6129a9565b5b612bc7848285612a5a565b509392505050565b600082601f830112612be457612be36129a4565b5b8135612bf4848260208601612b8d565b91505092915050565b60008060008060808587031215612c1757612c166125ec565b5b6000612c2587828801612839565b9450506020612c3687828801612784565b935050604085013567ffffffffffffffff811115612c5757612c566125f1565b5b612c6387828801612bcf565b925050606085013567ffffffffffffffff811115612c8457612c836125f1565b5b612c9087828801612bcf565b91505092959194509250565b60008060408385031215612cb357612cb26125ec565b5b6000612cc185828601612839565b9250506020612cd285828601612839565b9150509250929050565b600060a082019050612cf1600083018861288e565b612cfe60208301876127f8565b8181036040830152612d108186612708565b9050612d1f606083018561288e565b8181036080830152612d318184612708565b90509695505050505050565b7f4e487b7100000000000000000000000000000000000000000000000000000000600052602260045260246000fd5b60006002820490506001821680612d8457607f821691505b602082108103612d9757612d96612d3d565b5b50919050565b7f4552433732313a20617070726f76616c20746f2063757272656e74206f776e6560008201527f7200000000000000000000000000000000000000000000000000000000000000602082015250565b6000612df96021836126bc565b9150612e0482612d9d565b604082019050919050565b60006020820190508181036000830152612e2881612dec565b9050919050565b7f4552433732313a20617070726f76652063616c6c6572206973206e6f7420746f60008201527f6b656e206f776e6572206f7220617070726f76656420666f7220616c6c000000602082015250565b6000612e8b603d836126bc565b9150612e9682612e2f565b604082019050919050565b60006020820190508181036000830152612eba81612e7e565b9050919050565b7f4552433732313a2063616c6c6572206973206e6f7420746f6b656e206f776e6560008201527f72206f7220617070726f76656400000000000000000000000000000000000000602082015250565b6000612f1d602d836126bc565b9150612f2882612ec1565b604082019050919050565b60006020820190508181036000830152612f4c81612f10565b9050919050565b7f455243373231456e756d657261626c653a206f776e657220696e646578206f7560008201527f74206f6620626f756e6473000000000000000000000000000000000000000000602082015250565b6000612faf602b836126bc565b9150612fba82612f53565b604082019050919050565b60006020820190508181036000830152612fde81612fa2565b9050919050565b7f455243373231456e756d657261626c653a20676c6f62616c20696e646578206f60008201527f7574206f6620626f756e64730000000000000000000000000000000000000000602082015250565b6000613041602c836126bc565b915061304c82612fe5565b604082019050919050565b6000602082019050818103600083015261307081613034565b9050919050565b7f4e487b7100000000000000000000000000000000000000000000000000000000600052603260045260246000fd5b7f4552433732313a20696e76616c696420746f6b656e2049440000000000000000600082015250565b60006130dc6018836126bc565b91506130e7826130a6565b602082019050919050565b6000602082019050818103600083015261310b816130cf565b9050919050565b7f4552433732313a2061646472657373207a65726f206973206e6f74206120766160008201527f6c6964206f776e65720000000000000000000000000000000000000000000000602082015250565b600061316e6029836126bc565b915061317982613112565b604082019050919050565b6000602082019050818103600083015261319d81613161565b9050919050565b60008190508160005260206000209050919050565b60006020601f8301049050919050565b600082821b905092915050565b6000600883026132067fffffffffffffffffffffffffffffffffffffffffffffffffffffffffffffffff826131c9565b61321086836131c9565b95508019841693508086168417925050509392505050565b6000819050919050565b600061324d61324861324384612763565b613228565b612763565b9050919050565b6000819050919050565b61326783613232565b61327b61327382613254565b8484546131d6565b825550505050565b600090565b613290613283565b61329b81848461325e565b505050565b5b818110156132bf576132b4600082613288565b6001810190506132a1565b5050565b601f821115613304576132d5816131a4565b6132de846131b9565b810160208510156132ed578190505b6133016132f9856131b9565b8301826132a0565b50505b505050565b600082821c905092915050565b600061332760001984600802613309565b1980831691505092915050565b60006133408383613316565b9150826002028217905092915050565b613359826126b1565b67ffffffffffffffff811115613372576133716129ae565b5b61337c8254612d6c565b6133878282856132c3565b600060209050601f8311600181146133ba57600084156133a8578287015190505b6133b28582613334565b86555061341a565b601f1984166133c8866131a4565b60005b828110156133f0578489015182556001820191506020850194506020810190506133cb565b8683101561340d5784890151613409601f891682613316565b8355505b6001600288020188555050505b505050505050565b7f4e487b7100000000000000000000000000000000000000000000000000000000600052601160045260246000fd5b600061345c82612763565b915061346783612763565b925082820190508082111561347f5761347e613422565b5b92915050565b600060808201905061349a600083018761288e565b81810360208301526134ac8186612708565b90506134bb604083018561288e565b81810360608301526134cd8184612708565b905095945050505050565b600081905092915050565b60006134ee826126b1565b6134f881856134d8565b93506135088185602086016126cd565b80840191505092915050565b600061352082856134e3565b915061352c82846134e3565b91508190509392505050565b7f4f776e61626c653a206e6577206f776e657220697320746865207a65726f206160008201527f6464726573730000000000000000000000000000000000000000000000000000602082015250565b60006135946026836126bc565b915061359f82613538565b604082019050919050565b600060208201905081810360008301526135c381613587565b9050919050565b7f4552433732313a207472616e736665722066726f6d20696e636f72726563742060008201527f6f776e6572000000000000000000000000000000000000000000000000000000602082015250565b60006136266025836126bc565b9150613631826135ca565b604082019050919050565b6000602082019050818103600083015261365581613619565b9050919050565b7f4552433732313a207472616e7366657220746f20746865207a65726f2061646460008201527f7265737300000000000000000000000000000000000000000000000000000000602082015250565b60006136b86024836126bc565b91506136c38261365c565b604082019050919050565b600060208201905081810360008301526136e7816136ab565b9050919050565b7f4f776e61626c653a2063616c6c6572206973206e6f7420746865206f776e6572600082015250565b60006137246020836126bc565b915061372f826136ee565b602082019050919050565b6000602082019050818103600083015261375381613717565b9050919050565b7f4552433732313a20617070726f766520746f2063616c6c657200000000000000600082015250565b60006137906019836126bc565b915061379b8261375a565b602082019050919050565b600060208201905081810360008301526137bf81613783565b9050919050565b7f4552433732313a207472616e7366657220746f206e6f6e20455243373231526560008201527f63656976657220696d706c656d656e7465720000000000000000000000000000602082015250565b60006138226032836126bc565b915061382d826137c6565b604082019050919050565b6000602082019050818103600083015261385181613815565b9050919050565b7f4552433732313a206d696e7420746f20746865207a65726f2061646472657373600082015250565b600061388e6020836126bc565b915061389982613858565b602082019050919050565b600060208201905081810360008301526138bd81613881565b9050919050565b7f4552433732313a20746f6b656e20616c7265616479206d696e74656400000000600082015250565b60006138fa601c836126bc565b9150613905826138c4565b602082019050919050565b60006020820190508181036000830152613929816138ed565b9050919050565b7f4e487b7100000000000000000000000000000000000000000000000000000000600052601260045260246000fd5b600081519050919050565b600082825260208201905092915050565b60006139868261395f565b613990818561396a565b93506139a08185602086016126cd565b6139a9816126f7565b840191505092915050565b60006080820190506139c960008301876127f8565b6139d660208301866127f8565b6139e3604083018561288e565b81810360608301526139f5818461397b565b905095945050505050565b600081519050613a0f81612622565b92915050565b600060208284031215613a2b57613a2a6125ec565b5b6000613a3984828501613a00565b91505092915050565b7f455243373231456e756d657261626c653a20636f6e736563757469766520747260008201527f616e7366657273206e6f7420737570706f727465640000000000000000000000602082015250565b6000613a9e6035836126bc565b9150613aa982613a42565b604082019050919050565b60006020820190508181036000830152613acd81613a91565b9050919050565b6000613adf82612763565b9150613aea83612763565b9250828203905081811115613b0257613b01613422565b5b92915050565b7f4e487b7100000000000000000000000000000000000000000000000000000000600052603160045260246000fdfea2646970667358221220c16bd59e70819c653bcea7e10c8d87d146868627504dd0bb3ac8a54f34f94d6864736f6c63430008130033",
  "immutableReferences": {},
  "source": "// SPDX-License-Identifier: MIT\npragma solidity ^0.8.9;\n\nimport \"@openzeppelin/contracts/token/ERC721/ERC721.sol\";\nimport \"@openzeppelin/contracts/token/ERC721/extensions/ERC721Enumerable.sol\";\nimport \"@openzeppelin/contracts/access/Ownable.sol\";\n\ncontract NFT is ERC721, ERC721Enumerable, Ownable {\n    constructor() ERC721(\"MyToken\", \"MTK\") {}\n\n    uint NFT_ID = 1;\n    struct Detail {\n        uint id;\n        address nftowner;\n        string imgUrl;\n        uint nftprice;\n        string nft_title;\n    }\n\n    mapping(uint=>Detail) public data;\n    mapping(address=>Detail[]) userdata;\n    event AddNFT(uint NFT_ID,string imgUrl,uint nftprice,string nft_title);\n    // uint256 public constant MINT_PRICE = 0.05 ether;\n\n\n    function safeMint(address to, uint256 tokenId) public onlyOwner {\n        _safeMint(to, tokenId);\n    }\n\n    // The following functions are overrides required by Solidity.\n\n    function _beforeTokenTransfer(address from, address to, uint256 tokenId, uint256 batchSize)\n        internal\n        override(ERC721, ERC721Enumerable)\n    {\n        super._beforeTokenTransfer(from, to, tokenId, batchSize);\n    }\n\n    function supportsInterface(bytes4 interfaceId)\n        public\n        view\n        override(ERC721, ERC721Enumerable)\n        returns (bool)\n    {\n        return super.supportsInterface(interfaceId);\n    }\n\n    function Add_nft (address _add, uint _price,string memory _title , string memory _imgUrl ) public payable {\n        _mint(_add,NFT_ID);\n        data[NFT_ID] = Detail(NFT_ID,_add,_imgUrl,_price,_title);\n        userdata[_add].push(Detail(NFT_ID,_add,_imgUrl,_price,_title));\n        NFT_ID += 1;\n        emit AddNFT(NFT_ID,_imgUrl,_price,_title);\n    }\n\n}\n\n// 0x8AEeF79D959a5a17Aa600b1FC3Bd2476746C2Cd2",
  "sourcePath": "/home/hp/Documents/block-chain/NFT_Marketplace/contracts/NFT.sol",
  "compiler": {
    "name": "solc",
    "version": "0.8.19+commit.7dd6d404.Emscripten.clang"
  },
  "schemaVersion": "3.4.13",
  "updatedAt": "2023-04-21T12:34:50.626Z",
  "networkType": "ethereum",
  "devdoc": {
    "events": {
      "Approval(address,address,uint256)": {
        "details": "Emitted when `owner` enables `approved` to manage the `tokenId` token."
      },
      "ApprovalForAll(address,address,bool)": {
        "details": "Emitted when `owner` enables or disables (`approved`) `operator` to manage all of its assets."
      },
      "Transfer(address,address,uint256)": {
        "details": "Emitted when `tokenId` token is transferred from `from` to `to`."
      }
    },
    "kind": "dev",
    "methods": {
      "approve(address,uint256)": {
        "details": "See {IERC721-approve}."
      },
      "balanceOf(address)": {
        "details": "See {IERC721-balanceOf}."
      },
      "getApproved(uint256)": {
        "details": "See {IERC721-getApproved}."
      },
      "isApprovedForAll(address,address)": {
        "details": "See {IERC721-isApprovedForAll}."
      },
      "name()": {
        "details": "See {IERC721Metadata-name}."
      },
      "owner()": {
        "details": "Returns the address of the current owner."
      },
      "ownerOf(uint256)": {
        "details": "See {IERC721-ownerOf}."
      },
      "renounceOwnership()": {
        "details": "Leaves the contract without owner. It will not be possible to call `onlyOwner` functions anymore. Can only be called by the current owner. NOTE: Renouncing ownership will leave the contract without an owner, thereby removing any functionality that is only available to the owner."
      },
      "safeTransferFrom(address,address,uint256)": {
        "details": "See {IERC721-safeTransferFrom}."
      },
      "safeTransferFrom(address,address,uint256,bytes)": {
        "details": "See {IERC721-safeTransferFrom}."
      },
      "setApprovalForAll(address,bool)": {
        "details": "See {IERC721-setApprovalForAll}."
      },
      "symbol()": {
        "details": "See {IERC721Metadata-symbol}."
      },
      "tokenByIndex(uint256)": {
        "details": "See {IERC721Enumerable-tokenByIndex}."
      },
      "tokenOfOwnerByIndex(address,uint256)": {
        "details": "See {IERC721Enumerable-tokenOfOwnerByIndex}."
      },
      "tokenURI(uint256)": {
        "details": "See {IERC721Metadata-tokenURI}."
      },
      "totalSupply()": {
        "details": "See {IERC721Enumerable-totalSupply}."
      },
      "transferFrom(address,address,uint256)": {
        "details": "See {IERC721-transferFrom}."
      },
      "transferOwnership(address)": {
        "details": "Transfers ownership of the contract to a new account (`newOwner`). Can only be called by the current owner."
      }
    },
    "version": 1
  },
  "userdoc": {
    "kind": "user",
    "methods": {},
    "version": 1
  }
}